:020000040000fa
:080000000002040000000000f2
:020000040000fa
:040008008c03000065
:020000040000fa
:04000c003c030000b1
:020000040000fa
:040010004e0300009b
:020000040000fa
:0400140044030000a1
:020000040000fa
:04001800560300008b
:020000040000fa
:04001c008c03000051
:020000040000fa
:040020008c0300004d
:020000040000fa
:040024008c03000049
:020000040000fa
:040028008c03000045
:020000040000fa
:04002c008c03000041
:020000040000fa
:040030008c0300003d
:020000040000fa
:040034005e03000067
:020000040000fa
:040038008c03000035
:020000040000fa
:04003c008c03000031
:020000040000fa
:040040008c0300002d
:020000040000fa
:040044008c03000029
:020000040000fa
:040048008c03000025
:020000040000fa
:04004c008c03000021
:020000040000fa
:040050008c0300001d
:020000040000fa
:040054008c03000019
:020000040000fa
:040058008c03000015
:020000040000fa
:04005c008c03000011
:020000040000fa
:040060008c0300000d
:020000040000fa
:040064008c03000009
:020000040000fa
:040068008c03000005
:020000040000fa
:04006c008c03000001
:020000040000fa
:040070008c030000fd
:020000040000fa
:040074008c030000f9
:020000040000fa
:040078008c030000f5
:020000040000fa
:04007c008c030000f1
:020000040000fa
:040080008c030000ed
:020000040000fa
:040084008c030000e9
:020000040000fa
:040088008c030000e5
:020000040000fa
:04008c008c030000e1
:020000040000fa
:040090008c030000dd
:020000040000fa
:040094008c030000d9
:020000040000fa
:040098008c030000d5
:020000040000fa
:04009c008c030000d1
:020000040000fa
:0400a0008c030000cd
:020000040000fa
:0400a4008c030000c9
:020000040000fa
:0400a8008c030000c5
:020000040000fa
:0400ac008c030000c1
:020000040000fa
:0400b0008c030000bd
:020000040000fa
:0400b4008c030000b9
:020000040000fa
:0400b8008c030000b5
:020000040000fa
:0400bc008c030000b1
:020000040000fa
:0400c0008c030000ad
:020000040000fa
:0400c4008c030000a9
:020000040000fa
:0400c8008c030000a5
:020000040000fa
:0400cc008c030000a1
:020000040000fa
:0400d0008c0300009d
:020000040000fa
:0400d4008c03000099
:020000040000fa
:0400d8008c03000095
:020000040000fa
:0400dc008c03000091
:020000040000fa
:0400e0008c0300008d
:020000040000fa
:0400e4008c03000089
:020000040000fa
:0400e8008c03000085
:020000040000fa
:0400ec008c03000081
:020000040000fa
:0400f0008c0300007d
:020000040000fa
:0400f4008c03000079
:020000040000fa
:0400f8008c03000075
:020000040000fa
:0400fc008c03000071
:020000040000fa
:040100008c0300006c
:020000040000fa
:040104008c03000068
:020000040000fa
:040108008c03000064
:020000040000fa
:04010c008c03000060
:020000040000fa
:040110008c0300005c
:020000040000fa
:040114008c03000058
:020000040000fa
:040118008c03000054
:020000040000fa
:04011c008c03000050
:020000040000fa
:040120008c0300004c
:020000040000fa
:040124008c03000048
:020000040000fa
:040128008c03000044
:020000040000fa
:04012c008c03000040
:020000040000fa
:040130008c0300003c
:020000040000fa
:040134008c03000038
:020000040000fa
:040138008c03000034
:020000040000fa
:04013c008c03000030
:020000040000fa
:040140008c0300002c
:020000040000fa
:040144008c03000028
:020000040000fa
:040148008c03000024
:020000040000fa
:04014c008c03000020
:020000040000fa
:040150008c0300001c
:020000040000fa
:040154008c03000018
:020000040000fa
:040158008c03000014
:020000040000fa
:04015c008c03000010
:020000040000fa
:040160008c0300000c
:020000040000fa
:040164008c03000008
:020000040000fa
:040168008c03000004
:020000040000fa
:04016c008c03000000
:020000040000fa
:040170008c030000fc
:020000040000fa
:040174008c030000f8
:020000040000fa
:040178008c030000f4
:020000040000fa
:04017c008c030000f0
:020000040000fa
:040180001003000068
:020000040000fa
:040184008c030000e8
:020000040000fa
:040188008c030000e4
:020000040000fa
:04018c008c030000e0
:020000040000fa
:040190008c030000dc
:020000040000fa
:040194008c030000d8
:020000040000fa
:040198008c030000d4
:020000040000fa
:04019c008c030000d0
:020000040000fa
:0401a0008c030000cc
:020000040000fa
:0401a4008c030000c8
:020000040000fa
:0401a8008c030000c4
:020000040000fa
:0401ac008c030000c0
:020000040000fa
:0401b0008c030000bc
:020000040000fa
:0401b4008c030000b8
:020000040000fa
:0401b8008c030000b4
:020000040000fa
:0401bc008c030000b0
:020000040000fa
:0401c0008c030000ac
:020000040000fa
:0401c4008c030000a8
:020000040000fa
:0401c8008c030000a4
:020000040000fa
:0401cc008c030000a0
:020000040000fa
:0401d0008c0300009c
:020000040000fa
:0401d4008c03000098
:020000040000fa
:0401d8008c03000094
:020000040000fa
:0401dc008c03000090
:020000040000fa
:0401e0008c0300008c
:020000040000fa
:0401e4008c03000088
:020000040000fa
:0401e8008c03000084
:020000040000fa
:0401ec008c03000080
:020000040000fa
:0401f0008c0300007c
:020000040000fa
:0401f4008c03000078
:020000040000fa
:0401f8008c03000074
:020000040000fa
:0401fc008c03000070
:020000040000fa
:040208008c03000063
:020000040000fa
:04020c003c030000af
:020000040000fa
:040210004e03000099
:020000040000fa
:04021400440300009f
:020000040000fa
:040218005603000089
:020000040000fa
:04021c008c0300004f
:020000040000fa
:040220008c0300004b
:020000040000fa
:040224008c03000047
:020000040000fa
:040228008c03000043
:020000040000fa
:04022c008c0300003f
:020000040000fa
:040230008c0300003b
:020000040000fa
:040234005e03000065
:020000040000fa
:040238008c03000033
:020000040000fa
:04023c008c0300002f
:020000040000fa
:040240008c0300002b
:020000040000fa
:040244008c03000027
:020000040000fa
:040248008c03000023
:020000040000fa
:04024c008c0300001f
:020000040000fa
:040250008c0300001b
:020000040000fa
:040254008c03000017
:020000040000fa
:040258008c03000013
:020000040000fa
:04025c008c0300000f
:020000040000fa
:040260008c0300000b
:020000040000fa
:040264008c03000007
:020000040000fa
:040268008c03000003
:020000040000fa
:04026c008c030000ff
:020000040000fa
:040270008c030000fb
:020000040000fa
:040274008c030000f7
:020000040000fa
:040278008c030000f3
:020000040000fa
:04027c008c030000ef
:020000040000fa
:040280008c030000eb
:020000040000fa
:040284008c030000e7
:020000040000fa
:040288008c030000e3
:020000040000fa
:04028c008c030000df
:020000040000fa
:040290008c030000db
:020000040000fa
:040294008c030000d7
:020000040000fa
:040298008c030000d3
:020000040000fa
:04029c008c030000cf
:020000040000fa
:0402a0008c030000cb
:020000040000fa
:0402a4008c030000c7
:020000040000fa
:0402a8008c030000c3
:020000040000fa
:0402ac008c030000bf
:020000040000fa
:0402b0008c030000bb
:020000040000fa
:0402b4008c030000b7
:020000040000fa
:0402b8008c030000b3
:020000040000fa
:0402bc008c030000af
:020000040000fa
:0402c0008c030000ab
:020000040000fa
:0402c4008c030000a7
:020000040000fa
:0402c8008c030000a3
:020000040000fa
:0402cc008c0300009f
:020000040000fa
:0402d0008c0300009b
:020000040000fa
:0402d4008c03000097
:020000040000fa
:0402d8008c03000093
:020000040000fa
:0402dc008c0300008f
:020000040000fa
:0402e0008c0300008b
:020000040000fa
:0402e4008c03000087
:020000040000fa
:0402e8008c03000083
:020000040000fa
:0402ec008c0300007f
:020000040000fa
:0402f0008c0300007b
:020000040000fa
:0402f4008c03000077
:020000040000fa
:0402f8008c03000073
:020000040000fa
:0402fc008c0300006f
:020000040000fa
:040300008c0300006a
:020000040000fa
:040304008c03000066
:020000040000fa
:040308008c03000062
:020000040000fa
:04030c008c0300005e
:020000040000fa
:040310008c0300005a
:020000040000fa
:040314008c03000056
:020000040000fa
:040318008c03000052
:020000040000fa
:04031c008c0300004e
:020000040000fa
:040320008c0300004a
:020000040000fa
:040324008c03000046
:020000040000fa
:040328008c03000042
:020000040000fa
:04032c008c0300003e
:020000040000fa
:040330008c0300003a
:020000040000fa
:040334008c03000036
:020000040000fa
:040338008c03000032
:020000040000fa
:04033c008c0300002e
:020000040000fa
:040340008c0300002a
:020000040000fa
:040344008c03000026
:020000040000fa
:040348008c03000022
:020000040000fa
:04034c008c0300001e
:020000040000fa
:040350008c0300001a
:020000040000fa
:040354008c03000016
:020000040000fa
:040358008c03000012
:020000040000fa
:04035c008c0300000e
:020000040000fa
:040360008c0300000a
:020000040000fa
:040364008c03000006
:020000040000fa
:040368008c03000002
:020000040000fa
:04036c008c030000fe
:020000040000fa
:040370008c030000fa
:020000040000fa
:040374008c030000f6
:020000040000fa
:040378008c030000f2
:020000040000fa
:04037c008c030000ee
:020000040000fa
:040380001003000066
:020000040000fa
:040384008c030000e6
:020000040000fa
:040388008c030000e2
:020000040000fa
:04038c008c030000de
:020000040000fa
:040390008c030000da
:020000040000fa
:040394008c030000d6
:020000040000fa
:040398008c030000d2
:020000040000fa
:04039c008c030000ce
:020000040000fa
:0403a0008c030000ca
:020000040000fa
:0403a4008c030000c6
:020000040000fa
:0403a8008c030000c2
:020000040000fa
:0403ac008c030000be
:020000040000fa
:0403b0008c030000ba
:020000040000fa
:0403b4008c030000b6
:020000040000fa
:0403b8008c030000b2
:020000040000fa
:0403bc008c030000ae
:020000040000fa
:0403c0008c030000aa
:020000040000fa
:0403c4008c030000a6
:020000040000fa
:0403c8008c030000a2
:020000040000fa
:0403cc008c0300009e
:020000040000fa
:0403d0008c0300009a
:020000040000fa
:0403d4008c03000096
:020000040000fa
:0403d8008c03000092
:020000040000fa
:0403dc008c0300008e
:020000040000fa
:0403e0008c0300008a
:020000040000fa
:0403e4008c03000086
:020000040000fa
:0403e8008c03000082
:020000040000fa
:0403ec008c0300007e
:020000040000fa
:0403f0008c0300007a
:020000040000fa
:0403f4008c03000076
:020000040000fa
:0403f8008c03000072
:020000040000fa
:0403fc008c0300006e
:020000040000fa
:100400008fc620000e7f22000e0188000000000031
:10041000000020000000e000020032000001200087
:100420002002880014000700bd0007000000e00063
:1004300003003a00c03d2500010020000200370003
:100440000000200001002000810f70000100320038
:1004500014000700000020000000e000020032004d
:100460000000020000000000604b020000000000dd
:100470000040da000000fe004440a900e036200001
:100480000000e000030032000020200090018800fe
:100490004440a800000006008a1f78008b1f7800e7
:1004a00000000600a1028800800478000000eb0034
:1004b0001f003700e284440054a0b4009905ba003c
:1004c000e284440054a0b4009906ba00e2844400d7
:1004d00054a0b4000006eb00476fde00fd07b20039
:1004e000ae018800636ce10003003a00eaff0700f8
:1004f0000000eb000e003700606ce10008003a00dd
:10050000004deb000a05e800020039003420ec0041
:100510000af0a0008b05e900f9ff3e000400370057
:100520006168e100010032000086eb000b0007006b
:1005300019c7ba001905ba000e04e00003003a001a
:100540000a00e000dbff3a0000000600fe07b200f0
:10055000ae0288008a047800f5ff37000cd0a300b3
:10056000e20f4d001c00390089027800354dba00b9
:100570000a05e800020039003420ec000af0a0006f
:100580008b05e9000f003200254dba000a05e8008e
:10059000020039003420ec000af0a0008b05e900cd
:1005a000080032000c00e0000600320015cdba0051
:1005b0000a05e800020039003420ec000af0a0002f
:1005c0008b05e9008984e80054a0b4000b00e0002a
:1005d000e2ff3a00000006009902ba00055d7800cb
:1005e0008b05e900f7ff3200c82ade00055d7800c0
:1005f0008b05e900f3ff32000c00e000f1ff320050
:1006000019ddba00eeff3700984b0400000000002f
:100610004e06040000000000d60a0400000000009e
:100620003600f800809fbe00829fbe00849fbe00ff
:10063000869fbe003200f8003400f8001000200051
:10064000a001880000202000900188000000fa002e
:10065000bd1c07000080fa003400f9003200f900e8
:100660004f03be004f02be004f01be004f00be0050
:100670003600f900004006003600f8008020a9008e
:100680000000eb00453007003600f8004730070057
:100690008040a90010002000403007003600f8001c
:1006a0008060a900200020003c3007003600f800e0
:1006b0008080a90030002000383007003600f800a4
:1006c000809fbe00829fbe00849fbe00869fbe00aa
:1006d0000000fa003e2f070050c6200010407800ae
:1006e0008040e80050c620000148780040c6200045
:1006f00011c0b300014878008460a9000080fa00ae
:100700004f03be004f02be004f01be004f00be00af
:100710003600f900004006000040da000000fe004c
:1007200000000500889fbe008a9fbe008c1f7800d5
:100730009d000700a400330003866c006450e100b4
:100740002e0032006420e100330032006150e100ed
:100750002f0032006120e100310032008585550014
:10076000eb07b00009002000080420000500370056
:100770000804440089844c000a0031000603430049
:1007800087834b000001530081815b00f8ff330039
:100790000203be000800a0000804440089844c0045
:1007a000f6ff3900c639dd00830173000100320015
:1007b000130020008904d1000884d3000998a30005
:1007c000050032000800a7000300a0008904d10042
:1007d0000884d3008b05e8008904d1000884d30085
:1007e0000001eb000281d2003400070001f0a100fb
:1007f0000cf0a70001f0a0007c0037006420e100ad
:100800007e0032000801be000200be00f7ff370084
:100810006120e100790032006000b800f3ff37008a
:100820000000200001f82700f0ff37000001be00a3
:10083000480007000470a70003f0a1006509b1009b
:10084000160032000d0035006828e1000600350072
:10085000f0ff2f00f1ff27000300e00013003b0032
:1008600001002800000005000000400081804800d1
:100870008502e900fcff3a0008003700f88f4200cb
:1008800002003c008000eb00000005008100d10068
:100890000080d3008502e800fcff3a000300e0007e
:1008a00002003b0060001000e0801800000006001d
:1008b0004f89de0082017800870037008100200028
:1008c000618055000b003d000b00200061fe2f00f1
:1008d0000100e1001d0034008281710061016400ab
:1008e0008904d1000884d3000000e800faff3a0030
:1008f00071002000610064000300700002006000cd
:100900000900320061044400e0844c000988a5001d
:10091000050032008b05e8006808e10002003a009b
:100920008904d1000884d300f20f20000258e100ae
:1009300005003d00c75ddd00f907b2008980750044
:1009400008007800000006000bf827008b007800f4
:1009500000000500c70ade00f107b200f50fb20083
:1009600008003200e1cf4200020032000170a00016
:1009700024000500810f700001003200040805000a
:1009800044000500810f700002003a0014000500c9
:100990008502e9000000400081c04800fcff3b00e8
:1009a0000170a000240005000004be00e9ff07005c
:1009b0000003be000405be000200be00e5ff070004
:1009c000844f7500000006000200be006450e10084
:1009d000050036006420e100020036000968a3002b
:1009e00001003a000800be000160a0004f06780038
:1009f0004f05be004f04be0000000600f0ff2f00b0
:100a0000f1ff2700f9ff3700889fbe008a9fbe00d4
:100a10008c1f7800e4ff0700ebff330003866c00b7
:100a20006450e100240032006420e100270032001d
:100a30006150e100220032006120e100210032001b
:100a40008b854200eb07b1000134b800003ab800d2
:100a50000804420089844a00013ab8000030b80016
:100a60008880400009014a00040033000000400073
:100a700081804800020149008b05e900c909dd00b9
:100a8000830170000100320013002000c814de0052
:100a90004814dd004709de001200b200c808de007d
:100aa0000884700085ff070001f0a1000cf0a7008a
:100ab00001f0a000cdff37006120e100cfff320040
:100ac0000801be000200be00f7ff37006150e100e0
:100ad000fcff3a00c9ff3700881f78000304780044
:100ae0000300e00007003d0060001000e0801800f7
:100af00060011900e081190002003b0001f02d00a7
:100b0000030037000400070008f0a70001f0a00070
:100b10004f04780000000600889fbe008a9fbe0038
:100b2000008270000402710004827100260032000d
:100b30000004be000200be006011b8006b09200076
:100b4000950220000182cf000a0039000541b10062
:100b50000082cf00070039000541b1000982cf00b3
:100b6000040039000541b1000882cf0001003900be
:100b70000541b10005425200120032000a003b005c
:100b800082817100610164008100d1000080d30086
:100b90008984d3000884d3008b05e8000442e80070
:100ba000f7ff3a00070037000804440089844c002e
:100bb00000004800818048008b05e9000442e900fc
:100bc000f9ff3a003dff07004f05be004f04be008d
:100bd000000006008001780002003700b15978005b
:100be0000201e9000200e000fcff3a0000000600fc
:100bf0008001780002003700815978000201e90085
:100c00000200e000fcff3a0000000600020037008e
:100c10000204e0000b00320081017800000278003d
:100c200030417800b14f5100f9ff32001000200030
:100c300014427800934f5200030031000080eb0013
:100c4000000006000000eb00000006000c0037006a
:100c5000b0417800b1cf51000600320010002000f2
:100c60009542780094cf52000b0031000080eb00d9
:100c7000000006000304e000060032000201e90063
:100c800001027800800278000200e000f0ff3a00e4
:100c9000000005000000eb0000000600881f78003f
:100ca0000204780008017800caff0700080040002d
:100cb0004f04780000000600881f780000047800c8
:100cc000820178000101780088007800e06420004b
:100cd000060007000000e000020035008040eb0045
:100ce000017478004f047800000006006200fa00ea
:100cf000889fbe008a1f7800000578008104780074
:100d0000020478008300780080f92f000f00400073
:100d1000240207009a979f00a9979f000000eb000c
:100d2000b09f9f001885fb008a04fb000a05ea00bb
:100d30004f55de0050022000808f54000d0032001d
:100d4000e10f55000b003a000a0178008800780096
:100d50002f9097009f91970003000100a0979f009c
:100d60000000e0008e0032003f9897000000e8008d
:100d7000b09f9f000a04440050022000808f54005e
:100d8000040032000900e000e6ff3a003f989700b7
:100d9000840037000000eb00909f9f00809f9f0021
:100da000f0979f00e0979f00d0979f00c0979f000b
:100db0000700370061bf2000010050000000400024
:100dc000a1be200061007800df989700010070004c
:100dd000d09f9f0088047800090478003845780087
:100de0008a00fb0060bf2000df0107000000e00078
:100df000f0ff3a00a1c2b300814f55000e003a0047
:100e0000cf8897000180e900c08f9f001000780014
:100e1000c09f9f000000e00005003d000000ea00c8
:100e2000c09f9f005f9897000020a000d09f9f0068
:100e30000904e8000f003700c09f9f000000eb008e
:100e400005003700f2ff2700820f50000200320039
:100e50006a01b90002804000090478008804780023
:100e6000b900fb000103b100e98f5000f5ff360027
:100e7000c09f9f00e0c2b300984f100002003200f4
:100e80000080eb0019003700a0c2b300d84f10005b
:100e900007003a00cf8897000180e900c08f9f00cb
:100ea00010007800a09f9f000804e80010003700a1
:100eb0000000eb00a09f9f0088007800050037002d
:100ec000f3ff2700830f5000020032006a02b900ce
:100ed0000400410001047800880078003101fb0023
:100ee0000203b100e90f5100f5ff3600a09f9f00fb
:100ef000984478008900fb0020be20009a0107007a
:100f00000000e000020032000804e80001003700a1
:100f10008044eb00c97f9f0080c6b30080cf54009f
:100f200004003a0098cf14000a003a0066405000ce
:100f300006003700c0c6b30080cf540005003a0059
:100f400098cf140003003a0065404000c07f9f0026
:100f50000804e800e3fb2f008f814100184178006e
:100f600081f92f008f804000a0f92f000f00400072
:100f7000100007000000e00009003a00e1fb2f002c
:100f80008f804000a0f92f000f004000ce05070021
:100f90000000e000020035000804e80061ff3700af
:100fa0000080eb004f0578004f04be000080fa007f
:100fb00000000600889fbe008a1f780000047800a9
:100fc000824478000305780070c6b30080cf5400d7
:100fd00021003c0000c0e90080cf5400d5003d0056
:100fe0007240500080cf54003c0132000d003c00a4
:100ff0006c40500080cf54004f013c0000c0e9001d
:1010000080cf5400cb003d0050c2b30080cf5400cd
:10101000460132007c40400080cf540046013a0037
:10102000c400370010c6b30080cf5400c1003200a6
:1010300004003c006940500080cf54003e013a005b
:101040006900370030c6b30080cf5400180032006a
:101050000040e8000900370000c7b30080cf54000b
:101060001001320008003c0000c0e90080cf5400ad
:10107000d90032005c003c006540500080cf540035
:101080002d013a000f00370050c7b30080cf540045
:10109000550032006340400080cf540052003200bf
:1010a0006540500080cf540023013a000b01370007
:1010b0001181e900820878007800900012757800ac
:1010c0002301370028609000c2c6b300824f500051
:1010d00007003a0011017800640051008008780090
:1010e0001000be004f89de00820178001400370036
:1010f00012c7b300824f500003003a00110278007b
:101100006800520005003700a2c6b300824f5000ad
:1011100006003a009102780068805200800878004a
:101120005001be004000be00050037001180e900fc
:101130008008780010007800cf80de006109b900d7
:10114000009cbe000294be002862900085c6b300d9
:10115000854f52000d00320025c6b300854f520066
:1011600004003a000000fb00cf80de006109b900f6
:101170000800370045c7b300854f52000300320016
:10118000e6c24200854f520004003a00cf80de00e4
:101190006109b900009cbe000294be003802be0086
:1011a0002803be0078009000d1c2b300e00f5200c7
:1011b000e08f5a00e00f5b00e08f5b000800350015
:1011c000881090000118a30002003200b1c2b300e1
:1011d000030037000108a3005100320001c2b30030
:1011e000017578004c00370028609000c2c6b3003b
:1011f000824f500008003a00110378006400530049
:10120000800878001002be006033b8000400be0001
:101210000601be001400370012c7b300824f500011
:1012200003003a0091027800688052000500370000
:10123000a2c6b300824f500006003a0011037800a6
:1012400068005300800878005001be004000be00d6
:10125000050037001180e900800878001000780050
:101260008000eb006011b800009cbe000294be003c
:101270002862900085c6b300854f52000d003200f1
:1012800025c6b300854f520004003a000080fb00e1
:101290008000eb006011b8000800370045c7b300bc
:1012a000854f520003003200e6c24200854f5200d3
:1012b00004003a008000eb006011b800009cbe0002
:1012c0000294be00081090000038a3001400320001
:1012d0003800be002801be00e00f5000e08f58002b
:1012e000e00f5900e08f59000d00320080c7b300b5
:1012f00080cf54000300320080c5b30080cf54007b
:1013000007003a007800900001c3b300017578002f
:101310000000e800097578000000e80070049800fb
:1013200078009000000545006a0498008940780024
:101330006700370028619000c0c4b300804f51009f
:1013400006003a0091037800688053008008780016
:101350005001be004000be000500370011017800ba
:1013600064005100800878001000be00441407009b
:10137000009cbe000294be00b8009000780090006f
:101380000100e00002003d00d1c2b30008003700b8
:10139000881090000118a30002003200b1c2b3000f
:1013a000030037000108a3000400320001c2b300ab
:1013b000017578000000e800700498007800900043
:1013c000000545006a04980089407800080078000c
:1013d0006b0107006000370028619000c3c6b300ae
:1013e0001180e900834f5100220032000a003c00c6
:1013f000e4c15100834f51002500320083c1e80051
:10140000834f510013003200e8c15100834f510057
:101410001e003a000a00370043c7b300834f510053
:101420001b003200e6c14100834f5100180032001a
:10143000e9c15100834f510014003a000500370004
:101440008008780010007800485c90000848780018
:10145000410037008008780010007800680a90008a
:10146000cfa2de00612bb9000498be000690be003a
:101470003900370080087800100078006809900073
:10148000cf91de000288be00330037001180e900f2
:101490008008780010007800680c90000808780038
:1014a0002d0037001180e9008008780010007800d6
:1014b000cf80de006109b900009cbe000294be002e
:1014c00078009000000545006a04980081c7b300c9
:1014d000080078004d0307001f0037001180e90065
:1014e00080087800100578006a049800d80c9000f5
:1014f0000900e00004003d000a0078001a0107001e
:101500008004780007003700090178008000eb00b4
:101510000a0078000a0107000000e0000100320024
:101520008a045000190c98000b00370078009000d6
:101530000975780006003700780090000005450026
:101540000904e00001003a0059c2b300094d7800d7
:101550000000e800700498000000eb004f057800e0
:101560004f04be00000006000001eb00030037003e
:101570000201e8000404e000070032006103b80043
:101580006112b8008601420066427a00814f520023
:10159000f7ff3a00010037008001eb0003007800fc
:1015a00000000600010878000000060090017800a5
:1015b0000200e00002003a000308e90005003700dd
:1015c0008080eb001304e000020032000308e80012
:1015d0009300fb0001007800000006000200fa0002
:1015e000f0bf9f00ea8157003fb997008f80e90064
:1015f00060ad2000020007000080fa000000060035
:101600001200fa00889fbe008a9fbe008c1f7800df
:1016100002047800a0b79f00b1b79f008300780054
:1016200078805700dfff07000000eb00e0b79f0065
:10163000d8b79f000004eb005fb697009c85fb00c5
:101640008b04fb008b05ea00cf5dde00090078000b
:10165000b30007000000e0001b0032006fb09700ed
:101660000000e800e0b79f00120020008000eb00bf
:101670003fb09700afb1970003000100000578006c
:101680000a007800a60007000000e000f3ff3a001f
:101690006fb09700e10f4500080032000000e9003c
:1016a000e0b79f000001eb008a0078003fb0970090
:1016b000afb1970003000100220037000000e900ed
:1016c000e0b79f001f00370050022000808f5400b9
:1016d00002003a000b05e900180037000b057800fe
:1016e000160037006fb097000000e800e0b79f00d9
:1016f000120020008000eb003fb09700afb19700d0
:1017000003000100bc00fb00810f50000b00320001
:10171000e10f40007c003200efb097008100e9004b
:10172000e1b79f000001eb00800078003fb0970018
:10173000afb1970003000100730037000a05e9000c
:10174000e8ff3b005fb097008b054000dbb79f00d0
:1017500050022000808f5400030032000900e00096
:10176000b5ff3a00680037009b4078000040eb006e
:10177000a2c2b30082cf500003003a008b05e800fc
:10178000dbb79f0001407800a0f79f000000eb004e
:1017900080bf9f000b0037000fb89700f2ff2700b3
:1017a000820f5000050032006a01b90000fd2f00d1
:1017b000020040000100400080bf9f000a05e800d1
:1017c000dab79f005fb597009a4478008900fb0064
:1017d00000fd2f0001004000e90f5000eeff360031
:1017e00080c5200060ff07000000e0000300320019
:1017f0000a05e800dab79f00010037008044eb00db
:10180000b9f79f005fb0970081c6b30081cf540045
:1018100004003a0090cf14000b003a00e6c05000dc
:1018200006003700c1c6b30081cf540006003a005d
:1018300090cf140004003a00e5c04000b1f79f00cb
:101840000000e800d0b79f005fb097009000fb0059
:10185000f0c5200044ff07000000e0001a003a0035
:101860006fb097000000e800e0b79f001200200072
:101870008000eb003fb09700afb19700030001007c
:101880008004780009007800250007000000e000cf
:10189000f3ff3a006fb09700e18f44000800320078
:1018a0000000e900e0b79f000001eb00890078002c
:1018b0003fb09700afb1970003000100020037006e
:1018c0000000e900e0b79f007c8057001605070084
:1018d0000000e00003003c000800e0000a003a00bd
:1018e000080037004ff097000004e00001003200cc
:1018f0000804e8005fb097000000e800d0b79f0040
:101900004dff370000047800080078004f0678008b
:101910004f05be004f04be000080fa000000060024
:101920006900e100040035006d00e10003003400af
:101930000002b100010032000000050010000500a7
:1019400003003700b0cf1000050032000201e900ab
:10195000800178000200e000faff3a000000050074
:101960000300780000000600800078000101780084
:101970003104e000fdff3a000000510000000600c5
:10198000cf04b000889fbe008a9fbe008c9fbe001f
:101990008e1f780000067800814678003c00be006b
:1019a0002c01be00d0979f00e1979f00f2979f0007
:1019b000839f9f0010c6b30080cf560012003200f4
:1019c00010c4b30080cf56000f0032005c089000b6
:1019d0000000e00002003d00600020000900370028
:1019e0000000e00008003a0070c6b30080cf560047
:1019f0000300320070c4b30080cf560002003a00ea
:101a000010002000500e98008c00780080fa2f0003
:101a10000f004000d3010700e20f50000f003a0012
:101a200030002000100e9800e09c200011c6b3008a
:101a300081cf560019003200e4c0400081cf56002b
:101a400016003200209d20008140e80081cf560022
:101a500012003a00e09c2000100037000000e00077
:101a60001400340030002000100e9800609d20000b
:101a700011c6b30081cf560008003200e4c0400018
:101a800081cf560005003200a09d20008140e80073
:101a900081cf560001003a00609d2000ec009000cc
:101aa000b0487800b0687800104078009040980006
:101ab000a601370011c6b30081cf560003003200e3
:101ac00011c4b30081cf56000e003a00ec00900024
:101ad00002c3b300825878006106980082c5b30043
:101ae00013c6b30083cf560001003a0082c7b3008b
:101af0008258780061069800fc0090008180e80020
:101b0000710698000000e00005003a00c0979f00b1
:101b10008001eb0022fb2f000f01410087013700fd
:101b200010c6b30080cf56000600320010c4b300c8
:101b300080cf56009a003a00f19e2000d1b79f0056
:101b400002003700e29d2000d2b79f005c089000a1
:101b50001b0220000000e000010035008005e800c5
:101b60000b05e8006022b8006033b8005f90970072
:101b7000ef9097007f9197008f9997008811070049
:101b8000000278003c00be002c01be000400e00012
:101b900001003d0003f0a200d0979f00e1979f0055
:101ba000f2979f00839f9f00cf919700e48151009f
:101bb000c3979f000040eb00a0779f003efb2f00e3
:101bc0000f07470031003700c2012000030020004a
:101bd000a0fa2f000f004000d80307005f90970085
:101be000ef9097007f9197008f99970090b79f0093
:101bf000a1b79f00b2b79f00c3b79f003f12070075
:101c00000004be00670555004240a9000c003400e6
:101c1000661207000002be000203be001fb097005c
:101c2000afb097003fb19700cfb19700d81207002f
:101c3000d0979f00e1979f00f2979f00839f9f009e
:101c40006707470070002000050037006f676400d9
:101c5000cc48dd004444de0008847000c4ccde00c3
:101c6000e00f5400e08f5c00050034000000e90044
:101c7000e10f4000f5ff3a00010037000067eb007c
:101c80000000e900fdff3b00670747000a00e00095
:101c9000090034006022b8006033b8005f909700fc
:101ca000ef9097007f9197008f999700411107005f
:101cb0000000e000c4ff3c0032fb2f000f01410098
:101cc000020757008e0178008b0f57000100340087
:101cd0008b0178000300e0002b0035000040eb0092
:101ce0008e8f51000a003d0082fa2f000f01410043
:101cf00003004100b0489000f0c0b300e7cf5000af
:101d000003003c000040eb00010037008101780037
:101d10008300e90034fb2f000f0242000101420062
:101d200012427800804f5200f8ff3200ef4f50000f
:101d300001003a000449e8000100e00007003d000e
:101d40008301e8004f90970064004000c0979f0017
:101d500022fb2f000f0141000200370032fb2f0051
:101d60000f0141000300780005003700e2407800d1
:101d70008100fb005fb29700e4c078000171780039
:101d80000000e900f9ff3b005c0890000000e00063
:101d9000ea003d000300e900500e9800e70037001c
:101da0005f949700ef9497007f9597008f9d970021
:101db0006022b8006033b8000800be000a01be000f
:101dc000f71007000000e00005003d000bf0a20046
:101dd000d8979f00e9979f00fa979f008b9f9f00dd
:101de00070592700cf9097000088b900026a280038
:101df000130020004e11070064045000c8979f0094
:101e000015003b0063041400c0ff2f0000046400b1
:101e10000800ea00c0979f005f909700ef9097003e
:101e20007f9197008f9997000aa020000700370044
:101e30000808a300030032003a02be002a03be00d5
:101e4000dd1107000884d100680545000800e000a6
:101e5000f7ff3c001a0037000800e0001c003200c9
:101e6000c0ff2f0000046400c8979f000aa0200054
:101e70006000b8000200200003ff230007003700c5
:101e80000808a300030032003a02be002a03be0085
:101e9000c91107000884d100680545000800e0006a
:101ea000f7ff3c000002be000203be005f909700f7
:101eb000ef9097007f9197008f999700c2100700cd
:101ec000d0979f00e1979f00f2979f00839f9f000c
:101ed0005c0f900060c6b30080cf56000400320053
:101ee0006000200061c4b30081cf560002003a00b8
:101ef000cf9097006a8040000e074000f30f570014
:101f0000010034003e01200000c3b300a0779f0011
:101f10003bfb2f008f854500350037005fb09700f1
:101f2000efb097007fb197008fb99700731107004a
:101f30000004be00680757004240a90010003400aa
:101f40009a1107000002be000203be005fb09700b6
:101f5000efb097007fb197008fb997000c12070080
:101f60006022b80046782d007719240092110700ee
:101f7000d0979f00e1979f00f2979f00839f9f005b
:101f8000e88545008a0020000801be000c003700eb
:101f9000a400200005002000a0fd2f000f0040003d
:101fa000850207005fa89700efa897007fa9970018
:101fb0008fb1970004c3b300846541000001be00e7
:101fc000e00f5100e08f5900060034000a05e900d7
:101fd000e10f4500eeff3a000200370000c3b300f6
:101fe000806578000a05e900fcff3b00e8854500b4
:101ff0000e00e0000d0034005f909700ef90970016
:102000007f9197008f999700d0b79f00e1b79f000d
:10201000f2b79f0083bf9f006022b8006033b80012
:10202000641007000000e000bcff3c0031fb2f0003
:102030008f804000818555004f91970067004100d7
:10204000c0979f00020037008b05e9000000e900ff
:10205000010178008200780003c3b300b1cf110002
:10206000f9ff3200c0979f00dc09900061c6b30001
:1020700081cf56000300320061c4b30081cf560007
:1020800002003a000000e8000900370010002000bc
:1020900051c6b30081cf5600050032000d407800d4
:1020a00050c4b2000080fb000000e9004f00de00d9
:1020b000830140008b8f5100010034008b017800b8
:1020c0000300e0001d00350000c3b3008b8f5100fa
:1020d00006003d0062c279006940400041c3b30080
:1020e000814f520001003c00694050008300e9002c
:1020f0008100410001003700840178000302e900fb
:1021000001037800a142780080cf5200faff32002c
:1021100091c3b300814f500001003a00054be80025
:102120000400e00005003d000201e9008301e80031
:102130004f9297000402e800c4979f004f929700c7
:102140008d4078000c007800a40607004f07780047
:102150004f06be004f05be004f04be00cf04b100c5
:1021600000000600889fbe0000047800e68440005e
:102170001900d0004500de00f27f2000820f5000e1
:1021800010003a00000ceb00990478006f816400a5
:10219000200020001b003a00210190000200e00016
:1021a00018003a00110190000200e00015003a000a
:1021b000100020001100e00012003200200020007a
:1021c000100037000000e00004003a000100780031
:1021d0000e0207000000e00008003c00f2002800aa
:1021e0001901610001fe2300810c710021c02f0044
:1021f000010c40000080eb0002003700000ceb00f7
:102200000000eb004f04be0000000600fc87470002
:10221000889fbe008a9fbe008c9fbe008e1f7800e4
:102220000006780080c5b30080cf50000a0032005d
:102230007740400080cf50000a00320069404000e3
:1022400080cf50000b00320010b7200080bf9f00ed
:10225000ae0020000a00370002b6200082bf9f00b7
:102260000600370013b7200083bf9f008e002000b8
:102270000300370014b7200084bf9f000e01200028
:102280003c02be002c03be000605be000404be00d6
:1022900040c6b30080cf50000300320065404000cc
:1022a00080cf50000b003a00e00f5200e08f5a0040
:1022b000e00f5b00e08f5b0006003d006000b800af
:1022c0006011b800040450008584580006055900c8
:1022d00087855900e80f57000400320040002000b5
:1022e000f00f570038003a0001003700300020009e
:1022f000e00f5400e08f5c00e00f5d00e08f5d00b8
:1023000004003a00dc0890008d0120000100e0008c
:10231000060032008e00e900888060008fba9700c6
:10232000e5c07800f1ef9f007d012000800078007b
:102330008100e900050033008b05d1000a85d30038
:102340008984d3000884d300f9ff3700089ebe00bb
:102350000a96be00120037008d06e9008e00e900e3
:10236000848060000fb99700e2c1780082fd2f00e1
:102370000f01410003f17e00800078008100e90038
:10238000050033008783d1000683d3008582d30004
:102390000482d300f9ff3700049ebe000696be00fb
:1023a0003c02be002c03be00e00f5200e08f5a003a
:1023b000e00f5b00e08f5b008b0034000d00e0005d
:1023c000e5ff3c00880037002c60900081c6b30018
:1023d000814f50000b00320006003c000004e0007a
:1023e00008003200e6c05000814f50004e003a0015
:1023f00004003700c1c6b300814f50004a003a00c4
:10240000210037000800e00004003a005c0890005a
:102410008d0120000000e0000600320011000900dc
:102420000e84d8000fb99700e2c07800f1ef9f004a
:102430007d012000110009000e84d8000a00370039
:10244000110009000e04d8008d06e9000e81b900c4
:10245000020454008fb8970061417c0081fd2f0079
:102460008f80400082f07e00000478000800e000c9
:10247000020032000d00e000f1ff3c00cfc4de009e
:10248000614db90025003700e00f5400e08f5c007b
:1024900004003a005c0890008d0120000000e0007c
:1024a000070032006171b9000800be00f510070096
:1024b0008fb99700e3417800f3ef9f007d01200082
:1024c0006171b9000800be00de1007000b00370084
:1024d0006171b9000800be00950f07008d06e90084
:1024e00000f1b900020454000fba9700e4427c00e6
:1024f00084fd2f000f02420005f27e000004be00a2
:10250000e00f5000e08f5800020032000d00e000a4
:10251000efff3c004fcdde008a057800089ebe002c
:102520000a96be0030003700e00f5400e08f5c00d8
:10253000e00f5d00e08f5d0004003a005c08900051
:102540008d0120000000e000090032006172b90036
:10255000612bb9000800be000a01be00721107001d
:102560000fba970064427800f4ef9f007d012000cd
:102570006172b900612bb9000800be000a01be00fb
:10258000621107000d0037006172b900612bb900bc
:102590000800be000a01be00671107008d06e900b1
:1025a00000f2b900040454008fba970065427c0021
:1025b00085fd2f008f82420084f27e00009ebe00c7
:1025c0000296be003c04be002c05be00e00f540085
:1025d000e08f5c00e00f5d00e08f5d0002003400e2
:1025e0000d00e000e8ff3c00e80f570010003a0043
:1025f0000c1090000038a3000d003200f78f560039
:1026000006003e0085fd2f008f824200e5c07e005f
:1026100000c3b30080cf5000050032008d06e900f2
:1026200002c3b30081fd2f008f80400082f07e0046
:1026300078811600120e98006c00900083fd2f0028
:102640008f8141008d80410062f907001c089000d5
:10265000dc089000810f500006003d000080500013
:10266000000e98000c1090000040a1000016980089
:102670000f0037000100e0000d003d008c109000bd
:10268000f4806000f08f500009003a007c0990004f
:10269000fc009000810051000c09900082805000e5
:1026a000008050004240a90001003400000e980054
:1026b0004f0778004f06be004f05be004f04be0016
:1026c000cf01b100000006000400fa00889fbe00a0
:1026d0008a9fbe008c1f78000004780001067800f5
:1026e000f80d900078009000808555000808900053
:1026f00080855500180890008085550028089000b6
:102700008085550038089000808555004808900065
:10271000808555000002220090bf9f000003230027
:10272000a0bf9f00081090000028a30015003a00e9
:102730000b00e000130034000b0578008a047800d9
:10274000e20f55000100360029002000c80190006a
:1027500009017800ee805700580090000300010046
:10276000500498000000e0008c00320068089000df
:1027700009004000600c9800090555004240a9007e
:10278000eeff3c00780190000200e0000c003400f5
:10279000c80190008c0078005800900003000100f0
:1027a000500498008080eb000000e0007c003200c4
:1027b000e80890007800900000804000600c9800cd
:1027c000880c90000900e000110034000905780031
:1027d000e28f5400010036002a002000c80190005a
:1027e0000a017800ec8057005800900003000100b7
:1027f000500498000000e000680032006808900073
:102800000a004000600c98008a845400edff3700f5
:10281000180990000200e0000c003400c80190008c
:10282000e800900058009000030001005004980058
:102830008080eb000000e00059003200e8089000c2
:102840001808900000804000600c9800a80c9000d0
:102850000900e0001100340009057800e28f5400ff
:10286000010036002a002000c80190000a0178000b
:10287000ec805700580090000300010050049800bd
:102880000000e00045003200680890000a004000a7
:10289000600c98008a845400edff370038099000de
:1028a0000200e0000e003400e800900018089000dc
:1028b00080804000c8019000580090000300010093
:1028c000500498008080eb000000e00034003200eb
:1028d000e80890003808900000804000600c9800e4
:1028e000c80c90000900e0001100340009057800d0
:1028f000e28f5400010036002a002000c801900039
:102900000a017800ec805700580090000300010095
:10291000500498000000e000200032006808900099
:102920000a004000600c98008a845400edff3700d4
:10293000081090008000eb000028a300180032006f
:102940000b00e000160034008b04780009057800c5
:10295000e28f5400010036002a002000c8019000d8
:102960000a017800ee805700580090000300010033
:10297000500498000000e000080032006808900051
:102980000a004000600c98008a8454004240a9006c
:10299000eeff3c008000eb00010037008080eb0080
:1029a000010078004f0678004f05be004f04be00be
:1029b0000080fa0000000600881f78008a9fbe0091
:1029c0008c9fbe00000478000205be000406be0015
:1029d0000401be000a00be00550e0700008cbe00b8
:1029e0000c01be00aa0f07000005550081855d009f
:1029f0002a0498003b049800080078004f06be00a7
:102a00004f05be004f04780000000600e6004000bd
:102a10001101780005002800850261006f01610046
:102a200082087800020032001200200011003700f6
:102a3000a0019000120020000300e0000d003a0009
:102a4000900190000300e0000a003a001000e0004e
:102a500008003a003600370064034000960878000a
:102a600080017800530b7800900978000408780002
:102a700070015100110278000400e000f6ff3200fe
:102a80001300370064024000140378004f33de0067
:102a9000838141008308730080017800d3037800ac
:102aa000cf3bde001403780006034300068a730060
:102ab0001302780004024200100378004f33de0056
:102ac0008609720090017800038841000201e90044
:102ad00091017800ef8f5100eaff360010003700b7
:102ae00080017800530378004f33dd001002d100dd
:102af000040873006402400094037800cf3bdd00bb
:102b00001303d10086897300110378004f33dd0071
:102b10009401d100030a73009108d1000201e8007a
:102b200091017800ff8f5100edff3e00ef886100ba
:102b30009188720002007800000006000400fa008c
:102b4000889fbe0000047800e60444001900780065
:102b50008000d000c508de00f47f2000848f500084
:102b60000e003a00ef006000200020006b003a00e9
:102b7000a80090000100e00068003a009800900072
:102b80000100e00065003a00100020001800e0009d
:102b90006200320020002000600037000100e000e9
:102ba0000a003a0008007800c2bf9f00d3bf9f0010
:102bb00096ff0700800078000000eb004fb99700f7
:102bc000dfb997000100e00054003c004f88de00b0
:102bd0000281400083014800e07f2000800f510007
:102be000e08f59000d0034001900e00004003d00a2
:102bf0006000b8000200200003ff2f000300370030
:102c00006000b8000200200003ff2700009cbe0007
:102c10000294be001000200040003700e00f510079
:102c2000e08f5900050034004411dd00f000280059
:102c300019006000800c710037003700190078001f
:102c400004002800040260006f0060000040a00043
:102c5000800c7800d0fc2f00f1ff2f00800f510076
:102c6000818f590006003d00840c78000000eb00c5
:102c70002004980010049800000ceb002700370097
:102c80006f0141000600370008007800500c780002
:102c9000e40044001108780099087800800ceb00eb
:102ca000700051007001410001fe2f008280400041
:102cb000ef8f4000f4ff35000000ea0015003200fd
:102cc0008800780070011000d1027800822add00af
:102cd000980178008019de00038c720064044400bf
:102ce00098027800822add00910178008019de00c8
:102cf00083887200990078000209dd00980078004e
:102d00008008de00010c7100990078000008de00e8
:102d1000800c7800990c72000080eb004f04be001c
:102d20000080fa0000000600881f78000004780088
:102d30000040eb00005498003800900010407800ec
:102d400041c6b300814f5000320032001c003c00ed
:102d5000fdc05000814f50000a003c0081c0e900d6
:102d6000814f50002e003d0051c2b300814f5000f2
:102d700070003200fcc04000814f50008c003a00cf
:102d80002700370011c6b300814f500024003200e5
:102d900007003c00e9c05000814f50001d00320088
:102da000e3c04000814f500081003a007c003700b2
:102db00031c6b300814f50007d003a001300370048
:102dc000e1c6b300814f50001800320005003c00fe
:102dd000e7c05000814f50001100340081c0e8006e
:102de0000700370001c7b300814f500009003400cd
:102df000e5c04000814f500006003200e3c04000b3
:102e0000814f50006a003a00020037008000eb005a
:102e10006400370008007800a2040700650037004e
:102e2000080078006500070062003700e84890005d
:102e3000100020000104e0005e003a00f848900015
:102e4000c3c6b3002801900083cf50002a0032008f
:102e50000a003c00e4c1510083cf50002000320042
:102e600083c1e80083cf500014003200e8c1510054
:102e700083cf500027003a000a00370043c7b30051
:102e800083cf500016003200e6c1410083cf5000ce
:102e900013003200e9c1510083cf50001d003a00f9
:102ea000060037000281e9002204980092007800b1
:102eb000084c9000884878003e0037000281e90005
:102ec000220498009200780048029000cfa2de0011
:102ed000612bb9008498be008690be003500370093
:102ee0000281e900220498009200780048049000d2
:102ef000880878002f0037000281e900220498003a
:102f00009200780048019000cf91de008288be00d8
:102f100028003700280090000080e9002004980075
:102f20001000780048049000080878001000200085
:102f300020003700480090000000e800400498009e
:102f400098017800120020008000eb00180090002b
:102f500003000100800078001000200052022000d1
:102f6000828f50001300320048009000e18f400033
:102f7000070032000000e900400498009801780042
:102f80000001eb001800900003000100080037006a
:102f90000000e900400498000100780005003700b7
:102fa0008080eb0008007800b905070001003700b9
:102fb0000000eb004f047800000006006f04b00032
:102fc000889fbe008a9fbe008c9fbe008e1f780027
:102fd00000047800680090000000e00001003c0060
:102fe000f0ff27000000e90050049800480090001e
:102ff0000000e800400498009801780012002000ca
:103000008000eb001800900003000100000578002c
:10301000b0022000800f5500030032000080e8005d
:10302000800f550017003a00ea779f00d800900003
:103030008100e90051049800480090000b00330023
:103040000000e80040049800980178001200200079
:103050008000eb00180090000300010000057800dc
:103060007bfb2f008f854500080037000000e8003b
:10307000400498007bfb2f008f8545000085eb0006
:10308000b20037006bfb2f008f8545000003200046
:10309000800f550033003a00d80090008100e9000d
:1030a00051049800480090000c0033000000e80034
:1030b0004004980098017800120020008000eb0086
:1030c0001800900003000100000578008007200030
:1030d000800f55000a003200040037000000e800ad
:1030e00040049800ad00200065013700ad002000cd
:1030f0001cc0b30080052000800f550062013a001b
:1031000000c3b300805d780080c7b300805d7800a5
:10311000d80090008100e900510498004800900018
:103120000a0033000000e80040049800980178008d
:10313000120020008000eb00180090000300010046
:10314000000578006d012000040037000000e80051
:10315000400498006d0120000085eb000046eb0064
:1031600049013700e0062000800f550003003200bf
:10317000e0042000800f550071003a00e0c6b30063
:10318000805d7800d80090008100e900510498002b
:10319000480090000f0133000000e8004004980050
:1031a00098017800120020008000eb0018009000c9
:1031b000030001000005780010062000800f550074
:1031c0000300320010042000800f550007013a0070
:1031d00010c6b300805d7800d80090008100e9003f
:1031e0005104980048009000fa0033000000e80005
:1031f0004004980098017800120020008000eb0045
:1032000018009000030001000005780048009000bd
:10321000e1062000810f550003003200e104200088
:10322000810f550079003a00d80090008100e90034
:10323000510498000c0033000000e800400498009e
:1032400098017800120020008000eb001800900028
:10325000030001000005780080022000800f550067
:1032600014003200030037000000e800400498001a
:103270000b003700e10f45000900320048009000c4
:103280000000e90040049800980178000001eb007c
:103290008a00780018009000030001002600370023
:1032a000480090000000e900400498000085eb0011
:1032b00021003700d80090008100e90051049800f7
:1032c00048009000090033000000e8004004980026
:1032d00098017800120020008000eb001800900098
:1032e0000300010000057800030037000000e8003b
:1032f000400498000085eb000a00780029020700ce
:103300000000e000ebff3a00f0052000800f5500c0
:10331000e8ff320090022000800f550006003200c6
:1033200048009000e10f4500b3003a000000e900ba
:1033300040049800bc003700e0c6b300bd00370071
:1033400090062000800f550005003200ad002000df
:103350000046eb0090042000800f5500ca003a00a0
:1033600090c6b300805d7800d80090008100e9002d
:103370005104980048009000960033000000e800d7
:103380004004980098017800120020008000eb00b3
:10339000180090000300010000057800e0062000fe
:1033a000800f550003003200e0042000800f55001c
:1033b0008e003a00e0c6b300805d7800d80090002f
:1033c0008100e9005104980048009000810033001a
:1033d0000000e800400498009801780012002000e6
:1033e0008000eb0018009000030001000005780049
:1033f0004800900061062000810f55000600320051
:1034000061042000810f550003003200e10f4500e8
:1034100079003a0080003700d80090008100e90070
:10342000510498000d0033000000e80040049800ab
:1034300098017800120020008000eb001800900036
:10344000030001000005780048009000910620006c
:10345000810f550016003200040037000000e8001c
:10346000400498000085eb000d0037009104200017
:10347000810f55000e003200e10f450008003200b8
:103480000000e90040049800980178000001eb007a
:103490008a007800180090000300010064003700e3
:1034a000480090000000e9004004980060003700e8
:1034b000d80090008100e9005104980045003300d5
:1034c0000000e800400498009801780012002000f5
:1034d0008000eb0018009000030001000005780058
:1034e000e0062000800f550003003200e0042000b9
:1034f000800f55003d003a00d80090008100e9009f
:103500005104980048009000320033000000e800a9
:103510004004980098017800120020008000eb0021
:1035200018009000030001000005780090062000bc
:10353000800f55000300320090042000800f5500da
:103540002a003a00d80090008100e9005104980058
:10355000480090001f0033000000e800400498007d
:1035600098017800120020008000eb001800900005
:10357000030001000005780040072000800f55007f
:103580000300320040052000800f550017003a006c
:10359000d80090008100e900510498004800900094
:1035a0000c0033000000e800400498009801780007
:1035b000120020008000eb001800900003000100c2
:1035c0000005780090072000800f550004003a00a5
:1035d000170037000000e800400498000e00370094
:1035e00090052000800f550011003200e10f4500ca
:1035f00009003200480090000000e90040049800f3
:10360000980178000001eb008a0078001800900013
:103610000300010004003700480090000000e900aa
:10362000400498000085eb000046eb005a0137008b
:1036300060c6b300805d78001cc0b300560137003f
:10364000d80090008100e9005104980048009000e3
:10365000090033000000e800400498009801780059
:10366000120020008000eb00180090000300010011
:1036700000057800030037000000e80040049800cf
:103680000085eb001cc0b30000032000800f550034
:10369000ebff32000c04e00001003200805d780096
:1036a0008004eb000007eb00190037003002200017
:1036b000800f570003003c008a5d78000e07e80089
:1036c000010037008904e800d80090008100e9007b
:1036d0005104980048009000090033000000e80001
:1036e0004004980098017800120020008000eb0050
:1036f0001800900003000100000578000300370067
:103700000000e800400498000085eb001cc0b300f6
:10371000e10f45001b0032000d0178008a0078009f
:1037200000c3200086f807000000e000dfff3a0039
:10373000e0022000800f550012003a008a5d7800f8
:10374000d80090008100e9005104980048009000e2
:10375000090033000000e800400498009801780058
:10376000120020008000eb00180090000300010010
:1037700000057800030037000000e80040049800ce
:103780000085eb000e00e00033003a001300370024
:103790008904e900d80090008100e90051049800f4
:1037a00048009000090033000000e8004004980041
:1037b00098017800120020008000eb0018009000b3
:1037c0000300010000057800030037000000e80056
:1037d000400498000085eb001cc0b30000032000eb
:1037e000800f5500eaff32000900e0001a003d009a
:1037f000805d78008904e80017003700300220005f
:10380000800f570002003c008a5d78000e07e80038
:10381000d80090008100e900510498004800900011
:10382000090033000000e800400498009801780087
:10383000120020008000eb0018009000030001003f
:1038400000057800030037000000e80040049800fd
:103850000085eb001cc0b300e10f450006003200fc
:103860000d0178008a00780000c3200034f80700ba
:103870000000e000e1ff3a000c04e0006a003200c2
:10388000ea8f560005003a0050062000800f5500d0
:103890000800320050042000040037000007200018
:1038a000800f55000300320000052000800f5500f6
:1038b0005d003a008a5d7800d80090008100e90040
:1038c00051049800480090001d0033000000e800fb
:1038d0004004980098017800120020008000eb005e
:1038e000180090000300010000057800b0022000dd
:1038f000800f550003003200d0022000800f5500d9
:1039000012003a008a5d7800d80090008100e9003a
:103910005104980048009000090033000000e800be
:103920004004980098017800120020008000eb000d
:103930001800900003000100000578000300370024
:103940000000e800400498000085eb000046eb0012
:1039500012003700d80090008100e900510498005f
:1039600048009000090033000000e800400498007f
:1039700098017800120020008000eb0018009000f1
:103980000300010000057800030037000000e80094
:10399000400498000085eb001cc0b3000003200029
:1039a000800f5500ebff32000c04e00002003200f3
:1039b000805d78001cc0b3000007eb0016003700e4
:1039c000e70f570002003c008a5d78000e07e80010
:1039d000d80090008100e900510498004800900050
:1039e000090033000000e8004004980098017800c6
:1039f000120020008000eb0018009000030001007e
:103a000000057800030037000000e800400498003b
:103a10000085eb001cc0b30000fd2f000a00400031
:103a2000e90f5000e6ff360048009000e10f450026
:103a3000080032000000e900400498009801780076
:103a40000001eb008a0078001800900003000100dc
:103a5000020037000000e900400498000c04e00078
:103a600008003a000000eb0061fb2f008f8040004f
:103a7000818f550042003a00e10f450040003a00b6
:103a80003e003700804deb00e84890001000200019
:103a90000104e0003a003a00ea8f56000a003c00b8
:103aa0006149b9008000eb0060fb2f000f0040006f
:103ab000ea030700f0979f00819f9f00929f9f005d
:103ac000a39f9f000e0037006011b8008000eb003c
:103ad00060fb2f000f004000e0030700f0979f00fd
:103ae000819f9f00929f9f00a39f9f004249dd00fe
:103af000cf91de00e0fa2f000f0040000ffc07001e
:103b000010c0b30000549800f848900028009000be
:103b1000c2c6b30082cf500003003200c2c4b3005b
:103b200082cf50000a0032000080e9002004980093
:103b3000100478007f9097008f9897001f99970046
:103b4000af999700140b0700008cbe0009003700e6
:103b50000080e90020049800100078007f92970010
:103b60008f9a97001f9b9700af9b97000498be0009
:103b70000690be0010002000010037000a00780007
:103b80004f0778004f06be004f05be004f04be0031
:103b90006f04b100000006008006eb008004eb001b
:103ba000aeff37000003b1000b0035009000b100fc
:103bb000080034008000b100070035009001b1001a
:103bc000040034007000b100030035009001b10022
:103bd00001003c001000050000000500f0874700d0
:103be000889fbe008a9fbe008c9fbe008e1f7800fb
:103bf00000047800814478000205be0004067800c5
:103c00000b00e00002003c001b0020006ac6200000
:103c100060c6b30080cf54000e00320060c4b30011
:103c200080cf54000b00320070c6b30080cf540028
:103c30000300320070c4b30080cf540099003a00f2
:103c4000e40f46007f00350058089000800f5600b2
:103c50007c003d000c06e80060c6b30080cf540035
:103c60001000320060c4b30080cf54000d00320059
:103c7000081090000038a30004003a005808900093
:103c8000808f550001003d005b0c980058089000a3
:103c90000c005000500c980002003b000000eb00ac
:103ca000500c980018089000e80090000c00e0000c
:103cb00026003c0002c3b300827078000000e800d8
:103cc000100c9800d80890000100e00003003c00b0
:103cd000881090000138a30005003200e800900031
:103ce000e2c2b300827078000000e800100c980077
:103cf000580890008c00ea00810f500001003d0040
:103d00000006ea008c00ea00210c9800000646003c
:103d10005c0c98008b0f5600010034000b067800f5
:103d20003c0c9800e80090001808900000804000cb
:103d30000c0178008a007800a6f30700580890006c
:103d40000c0650004c0c9800be0037008c8f5500bc
:103d500018003d00008040000b0178008a007800c8
:103d60009cf307001808900000804500100c980094
:103d70008b0556002b0c9800d80890000100e0003d
:103d800003003c00881090000138a30006003200b8
:103d9000e8009000e2c2b30082707800380890001a
:103da0000000e800300c980058089000400c980083
:103db000a4003700008040000c0178008a007800e1
:103dc00084f307001808900000004600100c9800cb
:103dd0008c855500d80890000100e00003003c00ed
:103de000881090000138a30005003200e800900020
:103df000e2c2b300827078000000e800100c980066
:103e000058089000808f550001003400800578002c
:103e1000e800900018089000008040008c004500e9
:103e20000b0178006bf30700180890000b004000ae
:103e3000100c9800580890008b0550002b0c98002f
:103e40008000370070c6b30080cf540003003200fa
:103e500070c4b30080cf540012003a00580890009c
:103e6000808f550004003d00081090000038a3002a
:103e700001003a005b0c9800580890000000e9002f
:103e8000500c980002003b000000eb00500c980022
:103e900070c6b30080cf540009003a0059c6b30081
:103ea0000c00370010c6b30080cf5400060032006b
:103eb00010c4b30080cf540006003a00040037005d
:103ec00059c4b3000300370009c7b300010037002d
:103ed00009c5b30018089000e80090009a707800b7
:103ee0000000e800100c9800d80890000100e000e5
:103ef00003003c00881090000138a3000500320048
:103f0000e8009000e2c2b300827078000000e80090
:103f1000100c9800580890000000e00010003400d9
:103f20008b05e900808f5500010034008005780082
:103f3000e800900018089000008040008a00e80027
:103f40000b01780023f30700180890000b004000d5
:103f5000100c9800580890008b0550002b0c98000e
:103f6000e800900018089000008040000958780090
:103f70000005e8000c00e00004003500b1c2b30009
:103f8000014878008a06780004003700d1c2b300e7
:103f9000014878008a0678000c06ea00fd85570083
:103fa0000007eb0009003700a20020008c00780019
:103fb000728057002c0607007fb097008fb89700db
:103fc000816d7800000678000e07e8000c00e00024
:103fd000f5ff3c00e10f570013003c0050c6b30052
:103fe00080cf54000300320050c4b30080cf54008f
:103ff00003003a008a06780000c3b300805e7800b0
:104000000e00e00008003a0000c3b300805e7800b4
:10401000050037000e07e900fc80570061407f0073
:1040200002c3b300825e40000e00e000f9ff3c00d6
:10403000e80090001808900000804000808656003c
:104040003d0c98000810900074006000f00f5000c4
:104050000e003a0098089000780090000080400020
:10406000a808900001004000b8089000010040003e
:10407000c808900001004000f8089000810f50002f
:1040800002003d0000805000000c98004f077800af
:104090004f06be004f05be004f04be000f01b10029
:1040a000000006002f02b000889fbe008a9fbe005d
:1040b0008c1f78008e1f7800000478006800900044
:1040c0000000e00001003c00f0ff27000000e900d4
:1040d00050049800480090000000e8004004980058
:1040e00098017800120020008000eb00180090007a
:1040f0000300010000057800b0022000800f550089
:10410000030032000080e800800f550015003a00df
:10411000cad79f00d80090008100e90051049800a0
:1041200048009000090033000000e80040049800b7
:1041300098017800120020008000eb001800900029
:104140000300010000057800030037000000e800cc
:10415000400498000085eb005efd2f000f0747002c
:10416000020037004efd2f000f0747003800900077
:104170009000fb0010b42000fbf4070011b42000f5
:1041800001005000a1b32000e14578008b05fb0041
:1041900000032000800f550033003a00d800900043
:1041a0008100e90051049800480090000c003300a1
:1041b0000000e800400498009801780012002000f8
:1041c0008000eb001800900003000100000578005b
:1041d00080072000800f55000800320004003700df
:1041e0000000e800400498000085eb001b00370049
:1041f00080052000800f550018003a000b00e000f9
:1042000002003200f08f550002013a00d800900001
:104210008100e90051049800480090000900330033
:104220000000e80040049800980178001200200087
:104230008000eb00180090000300010000057800ea
:10424000030037000000e800400498000085eb0000
:104250000b0120000046eb000d0037000b00e000d2
:10426000e9003200eb0037000046eb00a900200017
:104270000b00e0001a003200ea8f55000200320005
:10428000e88f550002003a008b04780014003700d4
:104290006901200012003700d80090008100e90079
:1042a0005104980048009000090033000000e80025
:1042b0004004980098017800120020008000eb0074
:1042c000180090000300010000057800030037008b
:1042d0000000e800400498000085eb001cc0b3001b
:1042e00000032000800f5500ebff32000c04e000bb
:1042f00018003200005f7800160037006d8057000c
:10430000800f5700010031000a5f7800d80090004c
:104310008100e90051049800480090000900330032
:104320000000e80040049800980178001200200086
:104330008000eb00180090000300010000057800e9
:10434000030037000000e800400498000085eb00ff
:104350001cc0b300e10f45000f00320009017800d6
:104360008a00780090b4200075f507000000e00096
:10437000e2ff3a00480090000000e9004004980085
:10438000980178000001eb008a0078001800900086
:104390000300010003003700480090000000e9001e
:1043a000400498000c04e00008003a008004eb0090
:1043b00040fd2f000f004000800f57008b003a0097
:1043c000e10f450089003a0087003700004feb00fd
:1043d00068489000190020000004e00083003a00c3
:1043e000380090001040780041c6b300814f500063
:1043f00003003200e5c04000814f500035003a0014
:104400000b0178008000eb0040fd2f000f00400002
:104410006102070014c0b30004549800784a900069
:10442000c6c6b300a8029000864f52002400320096
:104430000a003c0064435300864f52001c003200c7
:1044400006c3e800864f5200120032006843530052
:10445000864f52005e003a000a00370046c7b3009c
:10446000864f52001200320066434300864f5200ce
:104470000f00320069435300864f520054003a0047
:10448000040037008582e9002504980015027800b1
:10449000380037008582e90025049800150278006d
:1044a000009abe000292be00190020004f003700a3
:1044b0008582e9002504980015027800480037003d
:1044c0008582e9002504980015027800008abe0064
:1044d000f5ff37000b0178008000eb0040fd2f0056
:1044e0000f004000110407000954980038039000a1
:1044f000a802900004c7b300964f12002a003200b1
:10450000784a9000c6c6b300864f52002b00320096
:104510000a003c0064435300864f520022003200e0
:1045200006c3e800864f52001900320025c6b300ca
:10453000854f520026003a000a00370046c7b300f4
:10454000864f52001800320066434300864f5200e7
:104550001500320015c7b300854f52001c003a0009
:1045600006003700280290000482e9002404980025
:1045700014027800004a7800cbff37002802900030
:104580000482e9002404980014027800c4ff370074
:104590008582e9002504980015027800009abe0083
:1045a0000292be00110037008582e90025049800c0
:1045b00015027800000a78000c0037008582e900b7
:1045c0002504980015027800008abe000700370015
:1045d000280290000482e900240498001402780064
:1045e000000a7800b0ff37008a04780009007800dc
:1045f0004f0778004f0678004f05be004f04be00fd
:104600002f02b100000006008b0020001cc0b30088
:104610001dff37001cc0b30017ff37001100370023
:104620008001780010427800d5c2b300d3cf1200c9
:1046300008003a00814f520003003e00a041900064
:1046400083cf500010003600e301400063015100a9
:1046500003003700814f52000b0032000201e900d5
:1046600003007800e20f5100edff3e000300370029
:10467000b0cf1000050032000201e9000200e000a6
:10468000fbff3a00000005001000050010000500c7
:10469000f0874700889fbe008a9fbe008c9fbe00a7
:1046a0008e1f78000004be00f84d90000046eb001d
:1046b0000900e00025003d00380090000000e800ff
:1046c0003004980090407800ccef9f00e2c5b30022
:1046d00082cf500003003a000000e8003004980048
:1046e000c1ef9f00b8069000d0c5b3009d4f1000e9
:1046f00002003a000d00e800010037000d007800cc
:10470000d105200098f30700c0b79f000000eb0020
:10471000cfb097000100e000c60032000d855000c8
:104720000046eb00e20f5500080034000a81e90062
:104730000d00e800d102200081f407001cc0b30086
:104740000000e00001003a000046eb006800900025
:104750000000e00004003c00100020000900e00020
:1047600001003200f0ff2700cbc6b2008b85fb00b2
:104770008b05e900cf5dde0050049800684890008a
:104780000004e0000c003a00280090000b00e0005c
:10479000050032000080e900200498001000780035
:1047a000b0b79f00040037000080e90020049800a3
:1047b00010007800d0b79f000047eb00fbb79f00c8
:1047c0008c457800650037000900e00003003400e4
:1047d0000d00780052f407001f0037000900e000c8
:1047e0001f0032000b04e0000d003a004fe9970073
:1047f0000204e00005003a000a0178008d0078000c
:10480000380090004ef407000c0037000a017800d1
:104810008d0078003800900049f407000e00370042
:104820004fe897000004e00007003a000a01780012
:104830008d0078003800900078ff07000000e0004d
:1048400007003a005a0037000a0178008d0078000e
:104850003800900071ff07000000e00054003a00ab
:10486000ffb097000100e00009003a00684890009e
:104870000004e00038003a005fb197000d5978005d
:10488000d2b79f0010c0b300005498003200370028
:10489000cde79f008d06fb000d0678000cf0a70009
:1048a0000c06ea000c06ea004f66de0005003a003e
:1048b0000d00e00003003a007c8057002af4070056
:1048c0000006e8007b8257001e0020008902780065
:1048d0008b44780084057800100037000e07e9004b
:1048e000cb00fb0048009000e18f4000090032003f
:1048f0000000e90040049800980178000001eb00f6
:104900001800900085bf9f00030001008fba970038
:10491000020037000000e900400498008e0f5600a6
:10492000eeff3500894578008504780068489000de
:104930000004e00005003a003fb097000d18780031
:10494000b0b79f0010c0b3000054980068009000fa
:104950000000e900600498002ec0b300d800900069
:104960008100e90051049800480090000c003300d9
:104970000000e80040049800980178001200200030
:104980008000eb0018009000030001008006780012
:10499000e18f46008cff3a00ffb597002b003700ef
:1049a000ffb597000000e80040049800270037009a
:1049b000ffb59700480090000000e900400498000f
:1049c000980178000001eb008d007800180090003d
:1049d000030001000900e00002003200e24f57002e
:1049e000050032000e07fb000080eb0011003200d2
:1049f000100020000f003700684890000004e0001d
:104a000007003a000b00e00003003200bfb097003f
:104a10008008eb00020037005fb197000b49780077
:104a2000100020000900e00002003d00cfb0970018
:104a3000310498004f0778004f06be004f05be00b6
:104a40004f04be000f01b1000000060048009000b6
:104a50000000e90040049800deff37004f02b0007c
:104a6000889fbe008a9fbe008c9fbe008e1f78006c
:104a7000a0b79f00010478000206be00000778007e
:104a8000880078007c8057001f010700e800600064
:104a9000b1b79f00000278000430a100e10f52007e
:104aa00048003a002400200083fd2f008f81410040
:104ab00008017800afb097000e00780013040700db
:104ac000000778000e00e00007003a006000b80020
:104ad0006011b80080af9f0091af9f00a2af9f0010
:104ae000b3af9f00320037004272dd0082fd2f001d
:104af0000f014100040241001400be00e4b79f0012
:104b0000aa0607000004be000205be0088af9f0091
:104b100099af9f00aaaf9f00bbaf9f006fb29700f5
:104b2000c4b79f0024bb2000d4b79f00fcb79f00f0
:104b30008dbf9f00150037004fb197004200be00a7
:104b4000c2b79f00e00f5000e08f58000c00320009
:104b5000960607005fb697003c02be002c03be001d
:104b6000950607000002be000203be000800be005a
:104b70000a01be000c0507000004be000205be00cd
:104b80005fb0970068004000d0b79f000e07e900b3
:104b90004240a900e8ff3c007fb697008fbe970017
:104ba00088af9f0099af9f00aaaf9f00bbaf9f0047
:104bb0004faa9700dfaa97000c0242008d824a009c
:104bc0004a003700e20f52004e003a0083fd2f00ea
:104bd0008f81410008017800afb097000e00780087
:104be0005a010700000778000e00e00007003a00b5
:104bf0006000b8006011b80080af9f0091af9f00c7
:104c0000a2af9f00b3af9f00320037004272dd00b9
:104c100081fd2f008f804000048240001400be0000
:104c2000e4b79f00610607000004be000205be0055
:104c300088af9f0099af9f00aaaf9f00bbaf9f00b6
:104c40006fb29700c4b79f0022ba2000d2b79f006e
:104c5000fcb79f008dbf9f00150037004fb1970034
:104c60004200be00c2b79f00e00f5000e08f580026
:104c70000c0032004d0607005fb697003c02be00f4
:104c80002c03be004c0607000002be000203be005b
:104c90000800be000a01be00c30407000004be00f5
:104ca0000205be005fb0970068004000d0b79f00cb
:104cb0000e07e9004240a900e8ff3c007fb69700dc
:104cc0008fbe970088af9f0099af9f00aaaf9f004b
:104cd000bbaf9f004fa99700dfa9970000fd2f00f1
:104ce0000f00400095f707000c02be000fa89700c8
:104cf0009fa897002fa99700bfa997000503070059
:104d000013003700e30f520004003a006000b800bf
:104d10000200200003ff2700080037006000b800f1
:104d20006011b800e40f520009003a00f0ff2f00b4
:104d3000f1ff2f00f2ff2f00f3ff270080af9f004d
:104d400091af9f00a2af9f00b3af9f000400370058
:104d500080af9f0091af9f00a2af9f00b3af9f00b5
:104d60000fa897009fa897002fa99700bfa99700a9
:104d70003fb297000400e0000100320003f0a200ff
:104d80004f0778004f06be004f05be004f04be001f
:104d90004f02b10000000600e4874700889fbe0074
:104da0008a9fbe008c1f78008e1f78000005780057
:104db00001077800020678000e00e00001003a00ca
:104dc0006e8757008a0578008b0478008905780083
:104dd0003b4478000800fb00d1f207000000e0002f
:104de000f9ff3a00d0c2b300804f540003003200f4
:104df00000c0e900804f540002003a008904e80036
:104e000001003700004478000c0178008e00780023
:104e100009007800c50107009e8f540001003a0088
:104e20000a0f78009e0f550005003a00e00f500071
:104e3000e08f5800e00f5900e08f590018003a0049
:104e4000b4c2b300844f54000a003a00f4ff2f00ac
:104e5000f5ff2f00f6ff2f00f7ff27000400e10009
:104e60000588e1000690e1000798e1000c003e0093
:104e70001f003700d4c2b300844f54001c003a0016
:104e80006022b80006002000070028000400e100ae
:104e90000588e1000690e1000798e100090036006e
:104ea00020022000e05f88006b404000804f5400eb
:104eb0000b003a006000b800020020000300280048
:104ec0000b0037006022b8006033b80000005200c9
:104ed00081805a0002015b0083815b00040037007f
:104ee000f0ff2f00f1ff2f00f2ff2f00f3ff27004c
:104ef0004f0778004f0678004f05be004f04be00f4
:104f00004f00b10000000600889fbe008a9fbe00cf
:104f10008c9fbe0000047800010678009804780099
:104f2000890578000b0578008a057800bb46780073
:104f30000d00fb007af207000000e000f9ff3a00e4
:104f4000d0c2b30080cf560003003a000b057800b2
:104f500081002000050037008000eb00b0c2b300e4
:104f600080cf560001003a000b0578001a40780007
:104f7000e2c6b300824f500003003200e2c4b30027
:104f8000824f500027003a008a0078005141780093
:104f900010c6b300804f5100040032000000eb0047
:104fa00013c4b300834f51005c003a0051417800b4
:104fb000e0c6b300804f5100040032000000eb0057
:104fc000e3c4b300834f510054003a0081047800d9
:104fd00080c2b300d94f10000b003a0064054500b1
:104fe0008a057800ba4678000d00fb00edfa07004c
:104ff0000000e000faff3a00f0c5b30080cf560091
:10500000f7ff3200010037008905780040002000da
:1050100091c2b3009bcf100040003a008b04e8001f
:105020003e00370092c6b300824f500003003200aa
:1050300092c4b300824f50003c003a005a417800bd
:10504000e0c6b300804f5100040032000000eb00c6
:10505000e3c4b300834f510030003a005a41780056
:1050600060c6b300804f5100040032000000eb0026
:1050700063c4b300834f510028003a008a047800cb
:10508000010078003000b300d940780092c6b30028
:1050900082cf50000300320092c4b30082cf500090
:1050a0001e003a008900780051417800e3c6b30041
:1050b000834f510003003200e3c4b300834f51001b
:1050c00016003a005141780093c6b300834f510057
:1050d0000300320093c4b300834f51000f003a0025
:1050e0005141780043c7b300834f510003003200a1
:1050f00043c5b300834f510008003a005141780086
:1051000093c7b300834f51000300320093c5b3002f
:10511000834f510001003a008104e8000c00e000d8
:1051200005003200090e7800030037000100780006
:105130000000a0008a047800090c78004f06be0029
:105140004f05be004f04be0000000600e887470080
:10515000889fbe008a9fbe008c9fbe008e1f780075
:10516000e0b79f0082047800030478006722b9004a
:105170000006eb00010037001c00200081017800d0
:1051800000c3b300b14f1000fbff3200000ceb0076
:1051900038147800880578000005eb002a003700f5
:1051a000840f550016003d00720020001100090018
:1051b0000205d8000100e00003003a00e485450044
:1051c000801deb008015eb001b06be00446bdd006c
:1051d000cc63de00870373004463dd0021b220004e
:1051e00001805200c1b02000614078000000fb0047
