:020000040000fa
:080000000002040000000000f2
:020000040000fa
:04000800840300006d
:020000040000fa
:04000c00620300008b
:020000040000fa
:040010007403000075
:020000040000fa
:040014006a0300007b
:020000040000fa
:040018007c03000065
:020000040000fa
:04001c008403000059
:020000040000fa
:040020008403000055
:020000040000fa
:040024008403000051
:020000040000fa
:04002800840300004d
:020000040000fa
:04002c008403000049
:020000040000fa
:040030008403000045
:020000040000fa
:040034008403000041
:020000040000fa
:04003800840300003d
:020000040000fa
:04003c008403000039
:020000040000fa
:040040008403000035
:020000040000fa
:040044003403000081
:020000040000fa
:04004800840300002d
:020000040000fa
:04004c008403000029
:020000040000fa
:040050008403000025
:020000040000fa
:040054008403000021
:020000040000fa
:04005800840300001d
:020000040000fa
:04005c008403000019
:020000040000fa
:040060008403000015
:020000040000fa
:040064008403000011
:020000040000fa
:04006800840300000d
:020000040000fa
:04006c008403000009
:020000040000fa
:040070008403000005
:020000040000fa
:040074008403000001
:020000040000fa
:0400780084030000fd
:020000040000fa
:04007c0084030000f9
:020000040000fa
:0400800084030000f5
:020000040000fa
:0400840084030000f1
:020000040000fa
:0400880084030000ed
:020000040000fa
:04008c0084030000e9
:020000040000fa
:0400900084030000e5
:020000040000fa
:0400940084030000e1
:020000040000fa
:0400980084030000dd
:020000040000fa
:04009c0084030000d9
:020000040000fa
:0400a00084030000d5
:020000040000fa
:0400a40084030000d1
:020000040000fa
:0400a80084030000cd
:020000040000fa
:0400ac0084030000c9
:020000040000fa
:0400b00084030000c5
:020000040000fa
:0400b40084030000c1
:020000040000fa
:0400b80084030000bd
:020000040000fa
:0400bc0084030000b9
:020000040000fa
:0400c00084030000b5
:020000040000fa
:0400c40084030000b1
:020000040000fa
:0400c80084030000ad
:020000040000fa
:0400cc0084030000a9
:020000040000fa
:0400d00084030000a5
:020000040000fa
:0400d40084030000a1
:020000040000fa
:0400d800840300009d
:020000040000fa
:0400dc008403000099
:020000040000fa
:0400e0008403000095
:020000040000fa
:0400e4008403000091
:020000040000fa
:0400e800840300008d
:020000040000fa
:0400ec008403000089
:020000040000fa
:0400f0008403000085
:020000040000fa
:0400f4008403000081
:020000040000fa
:0400f800840300007d
:020000040000fa
:0400fc008403000079
:020000040000fa
:040100008403000074
:020000040000fa
:040104008403000070
:020000040000fa
:04010800840300006c
:020000040000fa
:04010c008403000068
:020000040000fa
:040110008403000064
:020000040000fa
:040114008403000060
:020000040000fa
:04011800840300005c
:020000040000fa
:04011c008403000058
:020000040000fa
:040120008403000054
:020000040000fa
:040124008403000050
:020000040000fa
:04012800840300004c
:020000040000fa
:04012c008403000048
:020000040000fa
:040130008403000044
:020000040000fa
:040134008403000040
:020000040000fa
:04013800840300003c
:020000040000fa
:04013c008403000038
:020000040000fa
:040140008403000034
:020000040000fa
:040144008403000030
:020000040000fa
:04014800840300002c
:020000040000fa
:04014c008403000028
:020000040000fa
:040150008403000024
:020000040000fa
:040154008403000020
:020000040000fa
:04015800840300001c
:020000040000fa
:04015c008403000018
:020000040000fa
:040160008403000014
:020000040000fa
:040164008403000010
:020000040000fa
:04016800840300000c
:020000040000fa
:04016c008403000008
:020000040000fa
:040170008403000004
:020000040000fa
:040174008403000000
:020000040000fa
:0401780084030000fc
:020000040000fa
:04017c0084030000f8
:020000040000fa
:040180000803000070
:020000040000fa
:0401840084030000f0
:020000040000fa
:0401880084030000ec
:020000040000fa
:04018c0084030000e8
:020000040000fa
:0401900084030000e4
:020000040000fa
:0401940084030000e0
:020000040000fa
:0401980084030000dc
:020000040000fa
:04019c0084030000d8
:020000040000fa
:0401a00084030000d4
:020000040000fa
:0401a40084030000d0
:020000040000fa
:0401a80084030000cc
:020000040000fa
:0401ac0084030000c8
:020000040000fa
:0401b00084030000c4
:020000040000fa
:0401b40084030000c0
:020000040000fa
:0401b80084030000bc
:020000040000fa
:0401bc0084030000b8
:020000040000fa
:0401c00084030000b4
:020000040000fa
:0401c40084030000b0
:020000040000fa
:0401c80084030000ac
:020000040000fa
:0401cc0084030000a8
:020000040000fa
:0401d00084030000a4
:020000040000fa
:0401d40084030000a0
:020000040000fa
:0401d800840300009c
:020000040000fa
:0401dc008403000098
:020000040000fa
:0401e0008403000094
:020000040000fa
:0401e4008403000090
:020000040000fa
:0401e800840300008c
:020000040000fa
:0401ec008403000088
:020000040000fa
:0401f0008403000084
:020000040000fa
:0401f4008403000080
:020000040000fa
:0401f800840300007c
:020000040000fa
:0401fc008403000078
:020000040000fa
:04020800840300006b
:020000040000fa
:04020c006203000089
:020000040000fa
:040210007403000073
:020000040000fa
:040214006a03000079
:020000040000fa
:040218007c03000063
:020000040000fa
:04021c008403000057
:020000040000fa
:040220008403000053
:020000040000fa
:04022400840300004f
:020000040000fa
:04022800840300004b
:020000040000fa
:04022c008403000047
:020000040000fa
:040230008403000043
:020000040000fa
:04023400840300003f
:020000040000fa
:04023800840300003b
:020000040000fa
:04023c008403000037
:020000040000fa
:040240008403000033
:020000040000fa
:04024400340300007f
:020000040000fa
:04024800840300002b
:020000040000fa
:04024c008403000027
:020000040000fa
:040250008403000023
:020000040000fa
:04025400840300001f
:020000040000fa
:04025800840300001b
:020000040000fa
:04025c008403000017
:020000040000fa
:040260008403000013
:020000040000fa
:04026400840300000f
:020000040000fa
:04026800840300000b
:020000040000fa
:04026c008403000007
:020000040000fa
:040270008403000003
:020000040000fa
:0402740084030000ff
:020000040000fa
:0402780084030000fb
:020000040000fa
:04027c0084030000f7
:020000040000fa
:0402800084030000f3
:020000040000fa
:0402840084030000ef
:020000040000fa
:0402880084030000eb
:020000040000fa
:04028c0084030000e7
:020000040000fa
:0402900084030000e3
:020000040000fa
:0402940084030000df
:020000040000fa
:0402980084030000db
:020000040000fa
:04029c0084030000d7
:020000040000fa
:0402a00084030000d3
:020000040000fa
:0402a40084030000cf
:020000040000fa
:0402a80084030000cb
:020000040000fa
:0402ac0084030000c7
:020000040000fa
:0402b00084030000c3
:020000040000fa
:0402b40084030000bf
:020000040000fa
:0402b80084030000bb
:020000040000fa
:0402bc0084030000b7
:020000040000fa
:0402c00084030000b3
:020000040000fa
:0402c40084030000af
:020000040000fa
:0402c80084030000ab
:020000040000fa
:0402cc0084030000a7
:020000040000fa
:0402d00084030000a3
:020000040000fa
:0402d400840300009f
:020000040000fa
:0402d800840300009b
:020000040000fa
:0402dc008403000097
:020000040000fa
:0402e0008403000093
:020000040000fa
:0402e400840300008f
:020000040000fa
:0402e800840300008b
:020000040000fa
:0402ec008403000087
:020000040000fa
:0402f0008403000083
:020000040000fa
:0402f400840300007f
:020000040000fa
:0402f800840300007b
:020000040000fa
:0402fc008403000077
:020000040000fa
:040300008403000072
:020000040000fa
:04030400840300006e
:020000040000fa
:04030800840300006a
:020000040000fa
:04030c008403000066
:020000040000fa
:040310008403000062
:020000040000fa
:04031400840300005e
:020000040000fa
:04031800840300005a
:020000040000fa
:04031c008403000056
:020000040000fa
:040320008403000052
:020000040000fa
:04032400840300004e
:020000040000fa
:04032800840300004a
:020000040000fa
:04032c008403000046
:020000040000fa
:040330008403000042
:020000040000fa
:04033400840300003e
:020000040000fa
:04033800840300003a
:020000040000fa
:04033c008403000036
:020000040000fa
:040340008403000032
:020000040000fa
:04034400840300002e
:020000040000fa
:04034800840300002a
:020000040000fa
:04034c008403000026
:020000040000fa
:040350008403000022
:020000040000fa
:04035400840300001e
:020000040000fa
:04035800840300001a
:020000040000fa
:04035c008403000016
:020000040000fa
:040360008403000012
:020000040000fa
:04036400840300000e
:020000040000fa
:04036800840300000a
:020000040000fa
:04036c008403000006
:020000040000fa
:040370008403000002
:020000040000fa
:0403740084030000fe
:020000040000fa
:0403780084030000fa
:020000040000fa
:04037c0084030000f6
:020000040000fa
:04038000080300006e
:020000040000fa
:0403840084030000ee
:020000040000fa
:0403880084030000ea
:020000040000fa
:04038c0084030000e6
:020000040000fa
:0403900084030000e2
:020000040000fa
:0403940084030000de
:020000040000fa
:0403980084030000da
:020000040000fa
:04039c0084030000d6
:020000040000fa
:0403a00084030000d2
:020000040000fa
:0403a40084030000ce
:020000040000fa
:0403a80084030000ca
:020000040000fa
:0403ac0084030000c6
:020000040000fa
:0403b00084030000c2
:020000040000fa
:0403b40084030000be
:020000040000fa
:0403b80084030000ba
:020000040000fa
:0403bc0084030000b6
:020000040000fa
:0403c00084030000b2
:020000040000fa
:0403c40084030000ae
:020000040000fa
:0403c80084030000aa
:020000040000fa
:0403cc0084030000a6
:020000040000fa
:0403d00084030000a2
:020000040000fa
:0403d400840300009e
:020000040000fa
:0403d800840300009a
:020000040000fa
:0403dc008403000096
:020000040000fa
:0403e0008403000092
:020000040000fa
:0403e400840300008e
:020000040000fa
:0403e800840300008a
:020000040000fa
:0403ec008403000086
:020000040000fa
:0403f0008403000082
:020000040000fa
:0403f400840300007e
:020000040000fa
:0403f800840300007a
:020000040000fa
:0403fc008403000076
:020000040000fa
:100400000fa320000e7f22000e01880000000000d4
:10041000000020000000e000020032000001200087
:100420002002880014000700b90007000000e00067
:1004300003003a00c06f22000100200002003700d4
:100440000000200001002000810f70000100320038
:1004500014000700000020000000e000020032004d
:1004600000000200000000009827020000000000c9
:100470000040da000000fe004440a900e00b20002c
:100480000000e000030032000020200090018800fe
:100490004440a800000006008a1f78008b1f7800e7
:1004a00000000600a1028800800478000000eb0034
:1004b0001f003700e284440054a0b4009905ba003c
:1004c000e284440054a0b4009906ba00e2844400d7
:1004d00054a0b4000006eb00476fde00fd07b20039
:1004e000ae018800636ce10003003a00eaff0700f8
:1004f0000000eb000e003700606ce10008003a00dd
:10050000004deb000a05e800020039003420ec0041
:100510000af0a0008b05e900f9ff3e000400370057
:100520006168e100010032000086eb000b0007006b
:1005300019c7ba001905ba000e04e00003003a001a
:100540000a00e000dbff3a0000000600fe07b200f0
:10055000ae0288008a047800f5ff37000cd0a300b3
:10056000e20f4d001c00390089027800354dba00b9
:100570000a05e800020039003420ec000af0a0006f
:100580008b05e9000f003200254dba000a05e8008e
:10059000020039003420ec000af0a0008b05e900cd
:1005a000080032000c00e0000600320015cdba0051
:1005b0000a05e800020039003420ec000af0a0002f
:1005c0008b05e9008984e80054a0b4000b00e0002a
:1005d000e2ff3a00000006009902ba00055d7800cb
:1005e0008b05e900f7ff3200c82ade00055d7800c0
:1005f0008b05e900f3ff32000c00e000f1ff320050
:1006000019ddba00eeff3700a60304000000000069
:100610003600f800809fbe00829fbe00849fbe000f
:10062000869fbe003200f8003400f8001000200061
:10063000a001880000202000900188000000fa003e
:10064000110607000080fa003400f9003200f900ba
:100650004f03be004f02be004f01be004f00be0060
:100660003600f900004006003600f800809fbe000a
:10067000829fbe00849fbe00869fbe000000fa00dd
:10068000b5110700f09f2000104078008040e8007e
:10069000f09f200001487800e09f200011c0b300c7
:1006a0000148780084e0a9000080fa004f03be00f2
:1006b0004f02be004f01be004f00be003600f900e1
:1006c000004006003600f8008020a9000000eb0082
:1006d000031307003600f800051307008040a90047
:1006e00010002000fe1207003600f8008060a9000c
:1006f00020002000fa1207003600f8008080a900d0
:1007000030002000f61207000040da000000fe0072
:10071000000005008001780002003700b159780020
:100720000201e9000200e000fcff3a0000000600c0
:100730008001780002003700815978000201e90049
:100740000200e000fcff3a0000000600881f78006d
:100750000204780008017800eeff0700080040005e
:100760004f047800000006000000fa00881f78009f
:1007700000047800ea8157003fb9970088007800ac
:10078000603a2000070007000000e000020035008a
:100790008040eb00017478004f0478000080fa007c
:1007a000000006006200fa00889fbe008a1f7800e1
:1007b0000005780081047800020478008300780046
:1007c00080f92f000f004000b10307009a979f00a7
:1007d000a9979f000000eb00b09f9f001885fb00c9
:1007e0008a04fb000a05ea004f55de005002200093
:1007f000808f54000d003200e10f55000b003a00cd
:100800000a017800880078002f9097009f91970048
:1008100003000100a0979f000000e0008e0032005e
:100820003f9897000000e800b09f9f000a04440032
:1008300050022000808f5400040032000900e000c4
:10084000e6ff3a003f989700840037000000eb0075
:10085000909f9f00809f9f00f0979f00e0979f00d0
:10086000d0979f00c0979f0007003700619e20002f
:100870000100500000004000a19d200061007800b0
:10088000df98970001007000d09f9f0088047800d7
:1008900009047800384578008a00fb00609e20003b
:1008a000840107000000e000f0ff3a00a1c2b3009d
:1008b000814f55000e003a00cf8897000180e90073
:1008c000c08f9f0010007800c09f9f000000e000d4
:1008d00005003d000000ea00c09f9f005f98970060
:1008e0000020a000d09f9f000904e8000f003700ff
:1008f000c09f9f000000eb0005003700f2ff2700bb
:10090000820f5000020032006a01b90002804000ec
:100910000904780088047800b900fb000103b100e5
:10092000e98f5000f5ff3600c09f9f00e0c2b30082
:10093000984f1000020032000080eb0019003700d1
:10094000a0c2b300d84f100007003a00cf8897002c
:100950000180e900c08f9f0010007800a09f9f00d9
:100960000804e800100037000000eb00a09f9f0083
:100970008800780005003700f3ff2700830f500040
:10098000020032006a02b90004004100010478004c
:10099000880078003101fb000203b100e90f51002b
:1009a000f5ff3600a09f9f00984478008900fb0067
:1009b000209d20003f0107000000e00002003200ff
:1009c0000804e800010037008044eb00c97f9f0065
:1009d00080c6b30080cf540004003a0098cf1400c2
:1009e0000a003a006640500006003700c0c6b30057
:1009f00080cf540005003a0098cf140003003a005d
:100a000065404000c07f9f000804e8001801fb001b
:100a1000e3fb2f008f81410081f92f008f80400080
:100a2000a0f92f000f004000100007000000e000b8
:100a300009003a00e1fb2f008f804000a0f92f0051
:100a40000f004000560207000000e00002003500e1
:100a50000804e80061ff37000080eb004f057800d4
:100a60004f04be000080fa0000000600889fbe0010
:100a70008a9fbe00e4c6b300844f5100be0032001e
:100a800010003c006b425200844f510018003200ad
:100a900005003c0054c2b300844f5100f600320000
:100aa00084c5b3000f00370044c6b300844f510023
:100ab0001400320065424200844f5100f1003a00b8
:100ac0001000370004c7b300844f5100dd0032002e
:100ad0005600350065424200844f510053003200f9
:100ae00063424200844f5100e6003a004f00370055
:100af0001181e90082087800f0009000124178002e
:100b0000de00370020629000c5c6b300854f52005a
:100b100007003a009102780064825200840878004d
:100b20001402be004fabde008603780014003700cd
:100b300015c7b300854f520003003a001104780036
:100b40006802540005003700a5c6b300854f520067
:100b500006003a0091047800688254008408780006
:100b60005403be004402be00050037001182e900b4
:100b70008408780014027800cfa2de00612bb9004f
:100b80000498be000690be00a060900088c6b30026
:100b900088cf50000d00320028c6b30088cf500027
:100ba00004003a000402fb00cfa2de00612bb90072
:100bb0000800370048c7b30088cf50000300320058
:100bc0006644440088cf500004003a00cfa2de0003
:100bd000612bb9000498be000690be003002be0032
:100be0002003be00f0009000e00f5200e08f5a009a
:100bf000e00f5b00e08f5b0002003d00d4c2b30059
:100c000008003700001290000418a3000200320010
:100c1000b4c2b300030037000408a300510032003f
:100c200004c2b30084f178004c00370020629000c9
:100c3000c5c6b300854f520008003a001105780080
:100c400064025500840878001404be006055b800a2
:100c50000802be000a03be001400370015c7b30027
:100c6000854f520003003a009104780068825400d6
:100c700005003700a5c6b300854f520006003a00b4
:100c80001105780068025500840878005403be00fe
:100c90004402be00050037001182e9008408780094
:100ca000140278008002eb006033b8000498be00a4
:100cb0000690be00a060900088c6b30088cf5000a8
:100cc0000d00320028c6b30088cf500004003a005f
:100cd0000482fb008002eb006033b800080037009c
:100ce00048c7b30088cf5000030032006644440078
:100cf00088cf500004003a008002eb006033b80057
:100d00000498be000690be00801090000138a30039
:100d1000140032003002be002003be00e00f52007b
:100d2000e08f5a00e00f5b00e08f5b000d003200a7
:100d300081c7b300814f51000300320081c5b30069
:100d4000814f510007003a00f000900004c3b30047
:100d500084f178008100e80082f178008100e800e9
:100d600071009800f00090008181410063009800bc
:100d7000824078003e003700a0619000c4c6b300f6
:100d80001181e90084cf5100220032000a003c00aa
:100d90006442520084cf51002500320004c2e800b2
:100da00084cf5100130032006842520084cf5100ba
:100db0001e003a000a00370044c7b30084cf510038
:100dc0001b0032006642420084cf510018003200fe
:100dd0006942520084cf510014003a0005003700e8
:100de000820878009200780040589000804878008f
:100df0002c0037008208780092007800600a90008a
:100e0000cfa2de00612bb9008498be008690be00a0
:100e10002400370082087800920078006009900072
:100e2000cf91de008288be001e0037001181e900ec
:100e300082087800920078006008900080087800ae
:100e4000180037001181e90082087800120278004a
:100e5000cfa2de00612bb9000498be000690be0050
:100e6000f0009000818141006300980081c7b300c9
:100e70001c0007000b003700f000900082f17800a2
:100e800006003700f0009000818141000204e0007c
:100e900001003a0052c2b300824978008100e800a4
:100ea000710098000000eb004f05be004f04be002b
:100eb00000000600020037000304e00006003200d4
:100ec0000001780002007800b041780081cf510025
:100ed000f9ff3a00010037000001eb000200780042
:100ee00000000600fc874700889fbe008a9fbe0066
:100ef0008c9fbe008e1f78000006780080c5b3006e
:100f000080cf50000a0032007740400080cf500070
:100f10000a0032006940400080cf50000b003200d0
:100f2000109a200080bf9f00ae0020000a0037000a
:100f30000299200082bf9f0006003700139a20000c
:100f400083bf9f008e00200003003700149a20000a
:100f500084bf9f000e0120003c02be002c03be0097
:100f60000605be000404be0040c6b30080cf50009a
:100f7000030032006540400080cf50000b003a0073
:100f8000e00f5200e08f5a00e00f5b00e08f5b0043
:100f900006003d006000b8006011b8000404500075
:100fa000858458000605590087855900e80f5700c9
:100fb0000400320040002000f00f570038003a00d3
:100fc0000100370030002000e00f5400e08f5c008b
:100fd000e00f5d00e08f5d0004003a00dc08900047
:100fe0008d0120000100e000060032008e00e900c3
:100ff000888060008fba9700e5c07800f1ef9f000d
:101000007d012000800078008100e90005003300a8
:101010008b05d1000a85d3008984d3000884d300ce
:10102000f9ff3700089ebe000a96be001200370086
:101030008d06e9008e00e900848060000fb99700fa
:10104000e2c1780082fd2f000f01410003f17e0014
:10105000800078008100e900050033008783d1001b
:101060000683d3008582d3000482d300f9ff3700c2
:10107000049ebe000696be003c02be002c03be00cd
:10108000e00f5200e08f5a00e00f5b00e08f5b0042
:101090008b0034000d00e000e5ff3c0088003700c5
:1010a0002c60900081c6b300814f50000b003200cd
:1010b00006003c000004e00008003200e6c05000da
:1010c000814f50004e003a0004003700c1c6b30003
:1010d000814f50004a003a00210037000800e0002c
:1010e00004003a005c0890008d0120000000e00040
:1010f00006003200110009000e84d8000fb99700d5
:10110000e2c07800f1ef9f007d012000110009008e
:101110000e84d8000a003700110009000e04d80020
:101120008d06e9000e81b900020454008fb89700c3
:1011300061417c0081fd2f008f80400082f07e00a5
:10114000000478000800e000020032000d00e0001a
:10115000f1ff3c00cfc4de00614db900250037002f
:10116000e00f5400e08f5c0004003a005c0890003f
:101170008d0120000000e000070032006171b9001d
:101180000800be00630107008fb99700e3417800b3
:10119000f3ef9f007d0120006171b9000800be00df
:1011a0004c0107000b0037006171b9000800be0058
:1011b000390107008d06e90000f1b900020454006e
:1011c0000fba9700e4427c0084fd2f000f0242001a
:1011d00005f27e000004be00e00f5000e08f5800d2
:1011e000020032000d00e000efff3c004fcdde00ba
:1011f0008a057800089ebe000a96be0030003700bf
:10120000e00f5400e08f5c00e00f5d00e08f5d00b8
:1012100004003a005c0890008d0120000000e0000e
:10122000090032006172b900612bb9000800be00ec
:101230000a01be00da0107000fba97006442780085
:10124000f4ef9f007d0120006172b900612bb900ad
:101250000800be000a01be00ca0107000d003700e9
:101260006172b900612bb9000800be000a01be001e
:10127000cf0107008d06e90000f2b9000404540014
:101280008fba970065427c0085fd2f008f82420057
:1012900084f27e00009ebe000296be003c04be00aa
:1012a0002c05be00e00f5400e08f5c00e00f5d00f5
:1012b000e08f5d00020034000d00e000e8ff3c001c
:1012c000e80f570010003a000c1090000038a300ff
:1012d0000d003200f78f560006003e0085fd2f00fe
:1012e0008f824200e5c07e0000c3b30080cf500073
:1012f000050032008d06e90002c3b30081fd2f0016
:101300008f80400082f07e0078811600120e9800d7
:101310006c00900083fd2f008f8141008d80410083
:10132000fcfc07001c089000dc089000810f5000b6
:1013300006003d0000805000000e98000c10900048
:101340000040a100001698000f0037000100e000e7
:101350000d003d008c109000f4806000f08f500074
:1013600009003a007c099000fc00900081005100c7
:101370000c09900082805000008050004240a9007b
:1013800001003400000e98004f0778004f06be00a1
:101390004f05be004f04be00cf01b10000000600a3
:1013a0000400fa00889fbe008a9fbe008c1f780050
:1013b0000004780001067800f80d90007800900095
:1013c0008085550008089000808555001808900019
:1013d00080855500280890008085550038089000c9
:1013e0008085550048089000808555000002220045
:1013f00090bf9f0000032300a0bf9f000810900033
:101400000028a30015003a000b00e0001300340090
:101410000b0578008a047800e20f550001003600c1
:1014200029002000c801900009017800ee805700d3
:101430005800900003000100500498000000e000f4
:101440008c0032006808900009004000600c980091
:10145000090555004240a900eeff3c0078019000cc
:101460000200e0000c003400c80190008c007800fd
:101470005800900003000100500498008080eb00a9
:101480000000e0007c003200e80890007800900046
:1014900000804000600c9800880c90000900e0007b
:1014a0001100340009057800e28f54000100360075
:1014b0002a002000c80190000a017800ec80570043
:1014c0005800900003000100500498000000e00064
:1014d00068003200680890000a004000600c980024
:1014e0008a845400edff3700180990000200e000e4
:1014f0000c003400c8019000e800900058009000f3
:1015000003000100500498008080eb000000e00020
:1015100059003200e8089000180890000080400050
:10152000600c9800a80c90000900e0001100340045
:1015300009057800e28f5400010036002a002000df
:10154000c80190000a017800ec8057005800900014
:1015500003000100500498000000e0004500320044
:10156000680890000a004000600c98008a845400cb
:10157000edff3700380990000200e0000e00340053
:10158000e80090001808900080804000c80190009a
:101590005800900003000100500498008080eb0088
:1015a0000000e00034003200e808900038089000a5
:1015b00000804000600c9800c80c90000900e0001a
:1015c0001100340009057800e28f54000100360054
:1015d0002a002000c80190000a017800ec80570022
:1015e0005800900003000100500498000000e00043
:1015f00020003200680890000a004000600c98004b
:101600008a845400edff3700081090008000eb0042
:101610000028a300180032000b00e0001600340080
:101620008b04780009057800e28f54000100360031
:101630002a002000c80190000a017800ee805700bf
:101640005800900003000100500498000000e000e2
:1016500008003200680890000a004000600c980002
:101660008a8454004240a900eeff3c008000eb0059
:10167000010037008080eb00010078004f06780001
:101680004f05be004f04be000080fa0000000600b7
:101690000108780000000600839f68000100e00058
:1016a00002003d0060001000e08018000300e00030
:1016b00002003d0060011100e081190005000700f3
:1016c0004f00e00002003b0060001000e0801800c6
:1016d000000006006022b800060220000000d000d2
:1016e0008180d2000482d2008582d2000000a00056
:1016f0000202520083825a000300310002024200bb
:1017000083824a000000a1000603e900f3ff3a00cb
:1017100000000600efff07000400be000000060006
:10172000889fbe008a9fbe0030044200b0844a00f9
:1017300030054b0090854b006000b1000898be005a
:101740000a90be000440e10005c8e10006d0e100b7
:1017500007d8e10002003100680040001008e800ee
:101760004f05be004f04be0000000600889fbe006b
:101770008a9fbe003004be002005be00041854003d
:1017800005985c0006185d0007985d0011002000b8
:101790000440e10005c8e10006d0e10007d8e100ff
:1017a000010039008000eb00108810004f05be00da
:1017b0004f04be00000006001200fa00889fbe0021
:1017c0008a9fbe008c9fbe00e0b79f00f1b79f00cc
:1017d00082bf9f0093bf9f000605be000404be00a9
:1017e0000000eb00d0b79f00c0b79f00b0b79f00cc
:1017f000a0b79f0090b79f000006eb005fb1970075
:10180000cfb09700820141003fb097000200e00096
:1018100004003d00370007007e805700c0ff07002e
:1018200003003700330007007e805700cfff07001a
:10183000dfb697000d00e0000c0035006fb2970096
:10184000ffb297000fbb97009fbb970010002000ce
:10185000010020006011b800000272008182720055
:1018600002037300838373001b0007000c06e8006b
:1018700001042000810f5600e0ff3a000d00e00057
:1018800004003d000802be000a03be007e8057002f
:10189000a3ff07005fa897000000e00005003a00e2
:1018a0001fb29700afb297003fb39700cfb3970036
:1018b000090007006fb09700ffb097000fb99700bd
:1018c0009fb997004f06be004f05be004f04be00f3
:1018d0000080fa000000060001000700000006007a
:1018e000a4b79f00b5b79f00c6b79f00d7b79f00aa
:1018f000000006004f09de0082817100b3b79f002f
:101900004f01de008180400082807000a1b79f00ff
:101910008fb097004f09de00000040000200700009
:1019200090b79f007fa897004f01de0081804000a4
:101930008280700081b79f000d0007004f3ade00e3
:101940000000400004007000f0af9f000800070096
:101950000402420085824a0006034b0087834b0045
:10196000dfff07000802be000a03be0000000600f9
:101970002fb29700bfb297004fb39700dfb3970025
:1019800000000600881f780018002000881f7800db
:1019900089ff07008f87e9004f04780000000600e8
:1019a000801feb0084ff07008f87e900000006001e
:1019b000889fbe008a9fbe00e00f5000e08f580055
:1019c000e00f5900e08f59000c003d006044b80062
:1019d0006055b8000000540081805c0002015d0089
:1019e00083815d00180020001500070008003d00fd
:1019f000180007000004eb00050037000004eb00ae
:101a00000f00070002003d00120007001800200030
:101a1000dcff07000800e000060032006022b8008a
:101a20006033b8000000520081805a0002015b0060
:101a300083815b004f05be004f04be00000006001e
:101a4000e00f5200e08f5a00e00f5b00e08f5b0078
:101a5000000006006044b8006055b800040254005d
:101a600085825c0006035d0087835d000000060040
:101a7000889fbe008a9fbe008c1f7800e00f500038
:101a8000e08f5800e00f5900e08f59000d003d0035
:101a90006044b8006055b8000000540081805c00cc
:101aa00002015d0083815d001c0020000820e10030
:101ab00009a8e1000ab0e1000bb8e1000d003d000b
:101ac000080037000006eb00e00f5200e08f5a00dc
:101ad000e00f5b00e08f5b0006003d006044b80053
:101ae0006055b8000402540085825c0006035d0066
:101af00087835d00aaff07000c00e00006003200ab
:101b00006022b8006033b8000000520081805a00a3
:101b100002015b0083815b004f0678004f05be0029
:081b20004f04be0000000600a6
:020000040000fa
:101b2800120100000002000002000000000800008e
:101b3800d80400000a0000000001000001020000b3
:101b4800000100000902000043000000020100003b
:101b580000c000003209000004000000000100007d
:101b6800020200000100000005240000001000002f
:101b78000104000024020000020500002406000001
:101b8800000100000524000001000000010700001a
:101b980005810000030a000000020000090400009b
:101ba80001000000020a0000000000000007000019
:101bb80005020000024000000000000007050000c8
:101bc8008202000040000000000000000403000042
:101bd80009040000240300004d000000610000001b
:101be8007200000074000000690000006e00000030
:101bf800200000005300000063000000680000009f
:101c080061000000660000006c0000006900000030
:101c1800740000007a0000006c0000001e03000041
:101c280046000000610000006e0000002000000077
:101c3800430000006f0000006e0000007400000008
:101c4800720000006f0000006c0000006c000000d3
:101c58006500000072000000a68d0000ea8d0000fb
:101c6800ee8d0000128e000064750000747900008b
:101c78005f630000796300006c6500003a20000093
:101c8800256400002c20000061640000633a000015
:0c1c980020250000640a00000d00000080
:020000040000fa
:101ca4000200fa009ec0a9008ac1a8000080eb00cf
:101cb400702088000080eb00502088002a24ef0068
:101cc400420020008000eb00c042200097fa070089
:101cd40020002000302188002824ef000644a900b9
:101ce400f009200080208800f0092000602088008e
:101cf40002c4a8000804a80000a020004800de00d8
:101d0400c02088000040eb00004f78000700370037
:101d14001e80fb00c200dd0000a020000081400006
:101d24006000b8000089be001e4fe8001e40780025
:101d3400eb4f5000f6ff36001424a8001624ef00e1
:101d440014a4a9001424a9008000200050208800b5
:101d5400e09620008040eb00014878004097200086
:101d64008040eb00014878005097200090407800b4
:101d7400e0c060000148780060972000904078003f
:101d8400e0c06000014878005020800068006000d6
:101d94000000e000ecff3a0010c0b30013e8b70005
:101da40010c0b30014e8b7001568ef001668ef0020
:101db4000d68ef000040eb00004f7800150037007d
:101dc4001e80fb00800040006096200000804000e0
:101dd4008000eb00010878001e80fb0080004000ba
:101de40000962000008040008000eb00010878008d
:101df4001e80fb00919720000041eb008270780068
:101e04001e80fb00c19720000041eb008270780027
:101e14001e4fe8001e407800e24f5000e8ff3600f5
:101e240080a02000304b8800d00020005021880082
:101e3400f09720001050880000a0200081c0b3005b
:101e44000148780010a0200041c0b3000148780088
:101e540010a0200010407800804078000174a00099
:101e640010a02000014878000268ef001828ef0055
:101e74001a28ef001c68ef000028ef000080fa0029
:101e8400000006000200fa0000408000e10f50004c
:101e94000b003a00a12080000004200000806000b4
:101ea4000000e00006003a000080eb0050208800ab
:101eb4000c04a8000c84a800200020000040880026
:101ec40000208000700060000000e0000700320085
:101ed40010208000700060000000e0000300320069
:101ee4000001200000208800bc040700402080007e
:101ef400620060000000e000020032008ec0a90011
:101f0400a100370050208000610060000000e00064
:101f14000a00320060208000610060000000e000e0
:101f2400060032005eff07009ec0a80040002000ab
:101f340000408800100020005020880050208000bd
:101f4400700060000000e0000500320060208000a6
:101f5400700060000000e0000100320092040700fd
:101f64000120800000042000008060000000e000e8
:101f7400030032000004200000208800ee06070061
:101f840050208000640060000000e0001400320073
:101f940060208000640060000000e0000400320063
:101fa400120020008000eb0030072000520c0700d4
:101fb400400020005020880011c8bf000004e00049
:101fc4000300320011c8bf000040e90011e8b70067
:101fd40011c8bf000004e00001003a00a30107009b
:101fe4005120800000082000008060000000e00014
:101ff400060032006120800000082000008060009c
:102004000000e000010032004b0407005020800073
:10201400620060000000e0000c00320060208000dc
:10202400620060000000e00008003200120020009e
:102034008000eb00f0ff27002f0c07000080eb006e
:10204400702088002000200050208800004080007c
:10205400e30f500002003e008ec0a9004a00370082
:1020640060208000680060000000e000450032004d
:102074000040eb00004f78003d0037005020800006
:10208400680060000000e0003d0032009020800005
:10209400004078000ee8b7000ec8bf000080fb00c7
:1020a4004400de00004078000fe8b7008000200004
:1020b400502088000ec8bf00684060000004e000a3
:1020c40011003a000fc8bf000081fb008080fb00b4
:1020d400c0972000008040009040780061c06000fc
:1020e4000004a200e1406000c0972000000041000d
:1020f400e1c06000104178000204a1008140710039
:1021040001487800100037000fc8bf000081fb00b1
:102114008080fb0090972000008040009040780071
:1021240061c060000004a200e140600090972000bc
:1021340000004100e1c06000104178000204a100e9
:1021440081407100014878000fc8bf000004e0001e
:1021540002003a002d040700040037000001eb00e0
:10216400e180200020072000e30b07001e4fe80059
:102174001e407800e34f5000c0ff360001003700d6
:10218400000000008ec0a9000080fa0000000600d4
:102194000400fa0020479800314798003e40900020
:1021a4000080fb00680060000000e00003003200d3
:1021b4008040eb002e4090009b0107003e409000c1
:1021c4000080fb00640060000000e00003003200b7
:1021d40011c0b3002e40900093010700a1422000db
:1021e4002e4090000080fb0000004000008f400063
:1021f4001e007800be409000014878000080fa007c
:10220400000006000800fa002047980031479800b3
:1022140022079800634798003e4090000004e000c5
:10222400070032002e4090000080fb008000400038
:102234006096200000804000100f780006003700f0
:102244002e4090000080fb0080004000009620009b
:1022540000804000100f78001e0078000000e000ad
:1022640002003a000000eb0037003700ae00900097
:102274001e007800110098001e007800ee409000c7
:10228400014878001e0078001040900002c4b3009a
:10229400824060001e007800114098001e00780003
:1022a40010409000804078000134a0001e007800a7
:1022b400114098001e007800104090008040780083
:1022c4000174a0001e007800114098003e40900068
:1022d4000004e0000e0032002e4090000080fb005d
:1022e400ae4090008180fb00018140006196200097
:1022f40081004100910078000120a200000140000b
:102304006096200000004100010878000d003700ad
:102314002e4090000080fb00ae4090008180fb00c6
:102324000181400001962000810041009100780065
:102334000120a2000001400000962000000041009e
:10234400010878001e0078000080fa0000000600f2
:102354000400fa0020479800314798002e4090006e
:102364000004e00017003a003040800081c0b30050
:102374000148780030408000f19720001100980057
:1023840030408000c1c0b30011409800304080004c
:1023940031408000914090000174a00011409800e9
:1023a400304b800041c0b30011409800304b800096
:1023b400314b8000914090000174a00011409800be
:1023c4002e0037002e4090000080fb0000004000eb
:1023d400800078003e4090000080fb0000804000b8
:1023e4004300dd008000780000a02000008f400042
:1023f4001e00780010409000804078000124a00066
:102404001e007800114098001e00780010409000d3
:10241400804078000174a0001e00780011409800ec
:102424002e4090000080fb000000400080007800f7
:102434003e4090000080fb00008040004300dd002f
:10244400e400400000a02000008f40001e0078003f
:1024540010409000804078000124a0001e00780005
:10246400114098001e0078001040900080407800d1
:102474000174a0001e007800114098000080fa004a
:10248400000006000200fa00004f7800a12080003e
:1024940000022000008060000000e00051003200d3
:1024a4001e80fb00800040006096200000804000f9
:1024b400100278001e80fb0080004000609620001f
:1024c40000804000100078001001be0000042000cd
:1024d4000100200082027800030178008001780066
:1024e4000100780083826200000061008000eb003c
:1024f400c000dd00000020000001be006128b8001b
:102504000001710081817100028abe001e80fb00ff
:102514008000400060962000008040001002780097
:102524001e80fb0080004000609620000080400078
:10253400100078001001be000004200001002000fb
:102544000000690081806900008abe001e80fb00d3
:102554009e80fb00018140006196200081004100c3
:10256400910078000120a200000140006096200044
:1025740000004100010878001e80fb00800040003c
:102584006096200000804000900078001e80fb00d0
:102594000001400060962000000041001000780017
:1025a400104090000044b200904098001e80fb0050
:1025b4008000400060962000008040009000780079
:1025c4001e80fb00000140006096200000004100d6
:1025d400100078001041900000c4b300004069006e
:1025e400904098000080fa00000006000000fa0005
:1025f4001424ef000c24ef000028ef000080fa0000
:10260400000006000000fa00004080000000e00026
:1026140014003a001424ef000c24ef0020002000e2
:10262400302188002824ef000644a900f009200086
:1026340080208800f00920006020880002c4a800df
:102644009ec0a800010037001404a800a020800048
:10265400610060000000e000fbff32001000200079
:10266400004088000080fa00000006000000fa0024
:1026740013c8bf000004a2000004e00034003200cc
:1026840010c0b30013e8b70014c8bf000004a200d0
:102694000004e0002e00320010c0b30014e8b700bc
:1026a40009c8bf00e24f50000c003a00304b8000d4
:1026b4008040eb0001487800304b800081c4b300b7
:1026c40011409800304b8000314b800091409000c5
:1026d4000174a000114098001d00370009c8bf0014
:1026e400e14f50001a003a001068ef0020408000cb
:1026f40081c0b3000148780020408000f197200099
:10270400110098002040800041c0b300114098009f
:102714002040800021408000914090000174a0007e
:102724001140980010c0b30010e8b700304080009a
:1027340081c0b3000148780030408000f197200048
:10274400110098003040800001c8b3001140980087
:102754000080fa00000006000000fa001568ef008f
:102764001668ef0009c8bf00e24f50000f003a009e
:102774003040800081c0b3000148780030408000c0
:1027840071982000110098003040800081c4b3008b
:10279400114098003040800031408000914090000a
:1027a4000174a000114098001d00370050982000cb
:1027b4001080fb00619820009180fb00c808dd00b8
:1027c4000100700080007800804b8000808f5000f2
:1027d40007003100509820001080fb006198200011
:1027e4009180fb00c808dd0001007000804b880068
:1027f40096000700304b800071982000110098006b
:10280400304b800081c4b30011409800304b8000ed
:10281400314b8000914090000174a0001140980059
:102824000080fa00000006000400fa002047980027
:102834003147980000a02000000f78002e4090003f
:102844000080fb0000004000800078003e409000c3
:102854000080fb00008040004300dd001e0f4000ac
:102864001e0078009000780001f0a10001087800b3
:102874003e4090000004e00007003a002e40900023
:102884000080fb0080004000009620000080400093
:102894001e087800060037002e4090000080fb00e0
:1028a4008000400060962000008040001e087800f0
:1028b4001e0078009000780001e0a1000108780073
:1028c4009e007800648040009000780001e0a00041
:1028d400010878000080fa00000006000000fa00f9
:1028e40014a4a900714b800000082000008060003f
:1028f4000000e00027003a00409720009040780054
:1029040000c8b30000c060000004e0000a00320008
:1029140020c0b30009e8b70016c8bf000004a20035
:102924000004e000010032008bff07001468ef0090
:102934001368ef00430037003040800081c0b300cb
:102944000148780030408000f19720001100980081
:1029540030408000c1c0b300114098003040800076
:1029640031408000914090000174a0001140980013
:10297400304b800041c0b30011409800304b8000c0
:10298400314b8000914090000174a00011409800e8
:102994002c003700f09720009040780000c8b30066
:1029a40000c060000004e0000f00320010c0b3005b
:1029b40009e8b70015c8bf000004a2000004e00045
:1029c4000100320064ff07001468ef001368ef0091
:1029d40012c8bf000004a2000004e0001900320085
:1029e40022ff07001700370020c0b30009e8b70032
:1029f4003040800081c0b30001487800304080003e
:102a0400f1972000110098003040800041c0b300cd
:102a14001140980030408000314080009140900087
:102a24000174a000114098001468ef001368ef00cf
:102a340012c8bf000004a2000004e000010032003c
:102a44000aff07000080fa00000006000200fa00f6
:102a540080c0b300004f7800804b8000e70f500027
:102a64000d003e00804b8000004f780008c8bf0076
:102a74000004e00003003a0010c0b30008e8b70007
:102a84000500370008c8bf00e14f500002003a00bb
:102a940020c0b30008e8b700814b80001e80fb0013
:102aa40000805000804b8800304b80001e48780026
:102ab4007098200050408800704b800061006000d6
:102ac4000000e00017003a00090037005140800080
:102ad400604b800010417800824878008100e80053
:102ae400514088000000e800604b88001e4fe90058
:102af4001e4078000004e000f4ff3a000c003700a8
:102b040051408000604b800010417800824878007a
:102b14008100e800514088000000e800604b880014
:102b24001e4fe9001e4078000004e000f4ff3a0064
:102b34000080fa00000006000200fa002040800035
:102b4400104f78009e80fb00509720001080fb00ff
:102b5400629720001281fb004811dd000200700022
:102b6400808f500007003600509720001080fb0033
:102b7400619720009180fb00c808dd00010070000f
:102b8400004f7800509720001080fb0061972000d0
:102b94009180fb00c808dd0001007000800078000f
:102ba4001e80fb0000805000f10f20000101600036
:102bb4005197200091417800e0c1610002c1710089
:102bc40082487800c800de00609720001041780039
:102bd4006041610081407100014878000040eb00d1
:102be400104798001c003700209720001080fb003d
:102bf400319720009180fb00c808dd0001007000bf
:102c04009e4090008180fb0072982000e2c0780012
:102c1400014878000000e800f10f20000101600085
:102c24002197200091417800e0c1610002c1710048
:102c340082487800c800de003097200010417800f8
:102c44006041610081407100014878001e4090009d
:102c54000040e800104798001e4090009e4f50002e
:102c6400e1ff3900509720001080fb00619720009d
:102c74009180fb00c808dd00010070000000e00046
:102c84001e0032003040800081c0b300014878004b
:102c9400304080007198200011009800204080008e
:102ca4009000780000002400008060000000e00034
:102cb40009003a003040800081c4b30011409800fc
:102cc4003040800031408000914090000174a000a9
:102cd400114098002f0037003040800081c0b300bd
:102ce40011409800304080003140800091409000b5
:102cf4000174a00011409800260037003040800085
:102d040081c0b3000148780030408000f197200072
:102d1400110098003040800041c0b3001140980079
:102d24003040800031408000914090000174a00048
:102d340011409800709720001080fb0081972000bc
:102d44009180fb00c808dd00010070000000e00075
:102d540007003200709720001080fb00819720004c
:102d64009180fb00c808dd00010070000000010034
:102d740040972000904078000174a1000148780039
:102d840012c8bf000004a2000004e00001003200e9
:102d940036fe07000080fa00000006000200fa0078
:102da400704b80000070a000704b8800420020002f
:102db4008000eb00c04220005cf607000203200004
:102dc4008000eb0000a0200058f607001424a8009f
:102dd4000040eb00004f7800090037001e80fb0024
:102de400919720000041eb00827078001e80fb0068
:102df400c19720000041eb00827078001e4fe8006c
:102e04001e407800e24f5000f4ff360022002000fc
:102e14008000eb00e095200044f607001424a9008c
:102e240080a02000304b880000a0200020408800b3
:102e34002040800030408800109820001040780026
:102e440002e8b70002c8bf000004e00003003a0033
:102e54000001200000408800060037001200200016
:102e64002180200010002000a30807000002200099
:102e7400004088000080fa00000006000000fa000c
:102e8400f09720009040780000c8b30080cf500035
:102e940047003a00e096200001ccb30001487800d6
:102ea40020982000104078000080fb00e20f5000c2
:102eb40009003200e30f500023003200e10f5000fc
:102ec40037003a0040d92800604b880020012000d8
:102ed400804b88003600370010982000104078009e
:102ee4000004e00014003a0010982000104078001c
:102ef4000080fb00000040008000780000e3280010
:102f04000080400010007800604b8800604b800017
:102f14000080e80090407800009720000148780085
:102f2400604b8000630040009040780010972000c0
:102f3400014878001e003700e09620008040eb0036
:102f4400014878001a0037001098200010407800db
:102f5400e24f50000e003e00109820001040780010
:102f64000080fb00000040008000780020e328007f
:102f74000080400010007800604b8800604b8000a7
:102f8400104078000080fb00804b88000800370068
:102f9400e09620008040eb000148780004003700f0
:102fa400e09620008040eb0001487800000000001b
:102fb4000080fa00000006000200fa007098200069
:102fc4008040eb0001487800809820008040eb00ae
:102fd40001487800f0972000904078007fc060009e
:102fe4000080fb00e10f500011003200e20f50009e
:102ff400130032000000e00040003a00704b8000f3
:103004000070a000704b88000cc8bf000004e000f2
:10301400350032007098200010407800804078001d
:103024000114a00070982000014878003300370094
:10303400704b80000070a000704b88002f00370098
:10304400704b80000070a000704b88003098200006
:103054009040780000c8b30000c060000004e000a5
:1030640009003a0030982000904078006fc060005a
:103074000080fb008000400000962000008040009b
:10308400100f780008003700309820009040780036
:103094006fc060000080fb0080004000609620004c
:1030a40000804000100f78001e0078009000780027
:1030b40000002800008060000000e0000c003200e6
:1030c4001e0078009000780000402000008060001e
:1030d4000000e000080032007098200011c0b30026
:1030e40001487800050037000000000003003700a5
:1030f400000000000100370000000000714b800058
:1031040000082000008060000000e0000800320099
:1031140070982000604b8800704b80000000a00075
:10312400704b88000097200021c0b300014878004c
:103134000080fa00000006000000fa005021800020
:10314400620060000000e0001300320020408000b4
:103154009040900000c8b30080cf50000d003a00aa
:10316400304b80009040900040c8b30080cf5000a6
:1031740008003a0020408000c1c0b300114098000c
:103184002040800021408000914090000174a00004
:10319400114098002a24a90000082000502088002b
:1031a4000080fa00000006000000fa000284a80073
:1031b400000120005020880010c0b3000de8b700c3
:1031c4001c68ef000001eb008000eb0050072000ba
:1031d400c90707000080fa00000006000000fa009a
:1031e4000d68ef000001eb008000eb0040072000b9
:1031f400c10707000284a900000120000020880004
:103204001c68ef000080fa00000006000000fa00cd
:10321400d0c2b30011e8b7000ec8bf000080fb00a5
:103224000020a1000000e0001f003a000ec8bf000b
:103234000080fb004200de00004078000080fb00bc
:10324400c200dd0000a02000008040002040880073
:103254002040800030408800304080000020a200e0
:1032640030408800204080009000780000c0230097
:103274008080600000402300808f500008003a00e6
:103284002040800010009000820020008000780020
:10329400f09720001ef507000b0007000800370018
:1032a4003d000700060037000ec8bf000080fb0089
:1032b4000020a100e80f500001003a00530007006d
:1032c4000080fa00000006000000fa000868ef0021
:1032d4001268ef001568ef001668ef001068ef0041
:1032e4000968ef00304b8000314b80009140900022
:1032f4000174a10011409800304b80000020a2000e
:10330400304b8800304b8000314b8000914090005e
:103314000174a10011409800304b80000020a200ed
:10332400304b880030408000314080009140900054
:103334000174a10011409800e09620008040eb0049
:10334400014878000000eb00804b88004097200083
:103354008040eb00014878005097200090407800ae
:10336400e0c0600001487800609720009040780039
:10337400e0c0600001487800820007000001eb0013
:103384008000eb00300020005b07070053fd0700be
:103394000080fa00000006000000fa0009c8bf001f
:1033a400e24f500002003a00e3fd07001500370029
:1033b4000968ef0010c8bf000004a2000004e00088
:1033c4000f0032003040800081c0b3000148780013
:1033d40030408000f19720001100980030408000b8
:1033e400c1c0b300114098003040800031408000db
:1033f400914090000174a000114098000100370032
:103404001068ef000080fa00000006000200fa00d5
:10341400304b8000100078004e00de0061406000f8
:10342400004f7800304b80000020a200304b880011
:1034340000408000e80f50000e003a001098200071
:10344400104078008080fb00f007200000806000be
:10345400b0208800b02080000000e00003003200ab
:1034640000012000004088000200370040002000d6
:103474000040880009c8bf00e14f500025003a0011
:10348400304b800071982000110098006ffd0700f8
:1034940008c8bf00e24f500009003a00304b8000da
:1034a40041c0b30011409800304b8000314b800084
:1034b400914090000174a000114098002f00370043
:1034c4001e4078000004e00009003a00304b800000
:1034d40081c4b30011409800304b8000314b800010
:1034e400914090000174a00011409800230037001f
:1034f400304b800081c0b30011409800304b8000f5
:10350400314b8000914090000174a000114098005c
:103514001a003700409720009040780000c8b3009c
:1035240000c060000004e000130032007097200027
:103534001080fb00819720009180fb00c808dd000b
:10354400010070000000e0000700320070972000c6
:103554001080fb00819720009180fb00c808dd00eb
:1035640001007000000001004097200090407800a6
:103574000174a100014878000968ef000080fa0096
:10358400000006000000fa00f097200010407800c8
:103594000046b2000004e00050003a000098200009
:1035a400104078000080fb00cf80de00b2002000d5
:1035b40003002000820f5000838f580049003e0012
:1035c4000060010021003700220037004700370067
:1035d4002000370045003700060037000b00370095
:1035e400390037000d0037000a0037001b00370090
:1035f4002a003700704b80000070a000704b8800d8
:103604008000200000408800390037001bfe0700be
:1036140037003700e1fd0700350037002080200027
:10362400604b8800704b80000000a000704b880045
:103634000097200011c0b30001487800704b80004f
:103644000070a000704b8800290037005afe070064
:103654002700370028000700250037003098200095
:10366400104078008080fb00e0952000008040003e
:10367400604b8800704b80000000a000704b8800f5
:103684000097200011c0b30001487800704b8000ff
:103694000070a000704b880015003700704b80004c
:1036a4000070a000704b8800309820001040780013
:1036b4000080fb001198200011417800e195200062
:1036c400827078000a0037000001eb008000eb00f4
:1036d40020002000880607000500370000000000d5
:1036e4000300370000000000010037000000000064
:1036f4000080fa00000006000600fa00109820007e
:1037040010407800e14f500010003a00f09720007c
:10371400104078007f4060000004e0000b003a0095
:10372400704b80000070a000704b8800009820004f
:1037340010407800e34f500003003a0010c0b3007b
:103744000ce8b700010037000c68ef001098200067
:10375400104078000004e000f5003a00f0972000e3
:10376400104078007f406000e24f5000f0003a00c3
:1037740030982000104078006f4060000004e000a2
:10378400eb00320030982000904078006fc0600059
:103794000080fb00e20f5000e5003c000140800087
:1037a40000022000808f5000e1003a00704b80003e
:1037b4000070a000704b8800309820009040780082
:1037c40000c8b30000c060000004e00010003a002c
:1037d40030982000104178006f4061000080fb00a9
:1037e400800040000096200000804000100f780008
:1037f40030982000904078006fc060000080fb008b
:10380400c197200061407800404798000f003700be
:1038140030982000104178006f4061000080fb0068
:10382400800040006096200000804000100f780067
:1038340030982000904078006fc060000080fb004a
:103844009197200061407800404798004e409000d6
:10385400614060000004e00004003a001e007800ab
:103864000020a100000f7800030037001e0078003c
:103874000020a000000f78003098200090407800cd
:1038840000c8b30000c060000004e0000a003a0071
:1038940030982000104178006f4061000080fb00e8
:1038a4009e007800000140000096200000004100c6
:1038b4000108780009003700309820009040780013
:1038c4006fc060000080fb009e0078000001400093
:1038d4006096200000004100010878000098200054
:1038e40010407800e34f50002c003a001e0078008e
:1038f4009000780000002800008060000000e000d4
:1039040019003200309820009040780000c8b300bd
:1039140000c060000004e0000a003a003098200073
:10392400104178006f4061008080fb00c097200048
:1039340000804000904078000114a0000148780005
:103944000900370030982000904078006fc0600074
:103954008080fb0090972000008040009040780019
:103964000114a000014878001e0078001040900067
:10397400804078000124a0001e00780011409800c7
:103984001e00780010409000804078000174a00070
:103994001e00780011409800650037001e00780072
:1039a4000020a200000f78001e007800900078002c
:1039b40000002800008060000000e00011003200d8
:1039c4001e00780010409000804078000174a1002f
:1039d4001e007800114098001e00780010409000ee
:1039e400804078000164a0001e0078001140980017
:1039f400220020009e00780050002000be05070031
:103a0400060037001e0078001040900080407800c7
:103a14000164a0001e007800114098001e00780088
:103a24000020a200000f78004e4090006240600029
:103a34000004e00006003a001e00780090007800c0
:103a440000002800008060000000e0002400320034
:103a5400309820009040780000c8b30000c0600097
:103a64000004e0000a003a00309820001041780079
:103a74006f4061008080fb00c09720000080400000
:103a8400904078000114a100014878000900370033
:103a940030982000904078006fc060008080fb0068
:103aa4009097200000804000904078000114a1000d
:103ab400014878001e00780010409000b2c3b300a3
:103ac400824060001e00780011409800220020000f
:103ad4009e0078005000200087050700060037008c
:103ae4001e00780010409000b2c3b3008240600012
:103af4001e00780011409800a14220003098200058
:103b0400104178006f4061000080fb00000040001d
:103b140000804000100798001e00900010407800bc
:103b2400804078000114a1001e0090000148780034
:103b34000080fa00000006000000fa00c040800087
:103b4400d140800061004000e0804800c04088000f
:103b5400d14088000dc8bf000004a2000004e000aa
:103b6400080032001cc8bf000040e8001ce8b70091
:103b74001cc8bf000004e00002003a0000c0eb00d3
:103b84001ce8b7000080fa00000006000400fa00f8
:103b9400c2408000d3408000028fbe00c04080003d
:103ba400d14080001e01be00800f5100818f59005a
:103bb400f7ff3a001e00be000080fa000000060075
:103bc4000000fa00f0972000104078007f40600069
:103bd400e14f500078003a00f09720001040780040
:103be40002c6b3008240600000c2b30080cf500020
:103bf40073003a0030982000104078000004e00080
:103c0400040032003098200010407800e14f50004a
:103c14006d003a0000982000104078000080fb00fe
:103c240001022000810f5000200032000102200018
:103c3400810f500005003c000000e0000a00320043
:103c4400e10f500013003200600037001102200021
:103c5400810f50004300320021022000810f5000e8
:103c64004800320059003700608d2000604b880006
:103c740080002000804b8800704b80000000a00072
:103c8400704b8800704b80000070a000704b88005f
:103c94004e003700608d2000604b8800704b800020
:103ca4000070a000704b8800480037005098200036
:103cb4001080fb00619820009180fb00c808dd00a3
:103cc40001007000f10f20000101600051972000f5
:103cd40091417800e0c1610002c17100824878001e
:103ce400c800de0060972000104178006041610048
:103cf4008140710001487800408c2000f10f2000c1
:103d0400010160002197200091417800e0c1610029
:103d140002c1710082487800c800de00309720009c
:103d240010417800604161008140710001487800d1
:103d34007097200090407800e0c06000014878004f
:103d44008097200090407800e0c06000014878002f
:103d540040972000904078000174a000014878004a
:103d64001a003700408c2000604b8800700020004f
:103d7400804b8800e096200011ccb3000148780005
:103d840012003700109820001080fb0021982000ba
:103d94009180fb00c808dd0001007000004078003d
:103da4002ae8b700704b80000070a000704b8800b8
:103db4000000000005003700000000000300370089
:103dc4000000000001003700000000000080fa003d
:103dd400000006000000fa0000b0240001002000ea
:103de4002046880031468800808c20008040eb000b
:103df40001487800908c20008040eb000148780056
:103e0400a08c200081c0b300014878001e68ef0038
:103e140051c1b30010c0b300ddf80700d1c1b30035
:103e240020c0b300daf8070003c4b30042882000be
:103e34008040eb0020c0b300f2f807003041880056
:103e44002828ef001f68ef000080fa000000060039
:103e54000600fa00000f7800110798002207980066
:103e64001e007800e50f500012003a003041800037
:103e74009e009000808f500006003a0003c4b300f7
:103e8400428820008040eb0020c0b300ddf807002a
:103e940030418800404180009e009000808f500097
:103ea40002003a001f68ef002468ef0010c0b3005e
:103eb400010037000040eb000080fa00000006001b
:103ec4000400fa00000f7800214798001e68ef00f4
:103ed400304180000000e0000600320030418000e4
:103ee4009000780000002800008060000000e000de
:103ef40021003a0030418000904078002e4090002c
:103f040080cf5000030031003041800090407800a1
:103f1400214798001e68ef000c0037001ec8bf0040
:103f24000080fb001e004000e181200091407800e9
:103f34008180fb0042882000e2c0780001487800bc
:103f44001ec8bf000040e8001ee8b700e181200061
:103f5400914078002e40900080cf5000efff390050
:103f640003c4b300428820008040eb0020c0b300ab
:103f7400a4f80700304188001ec8bf000080fa0082
:103f8400000006000400fa00000f780021479800a2
:103f94009ec0a9001fc8bf000004e00009003a0049
:103fa4009e00780001418800ae40900042822000cb
:103fb4000149780010c0b30025e8b70010c0b30071
:103fc4001fe8b7009ec0a8000080fa0000000600a9
:103fd4000600fa00200798009ec0a9001fc8bf0071
:103fe4000004e000020032009ec0a8001f00370059
:103ff4000040eb00004f7800ae00900011079800dd
:104004001e4fe8001e407800e14f40000c003200d3
:104014001e009000104078000080fb000000ea00c1
:104024004f00de00004078009e0090008100e80010
:10403400110798000004e000f1ff3a000100370086
:10404400000000002e009000004188009e4078008f
:10405400428220000149780010c0b30025e8b7006f
:1040640010c0b3001fe8b7009ec0a8000080fa008b
:10407400000006000600fa00200798009ec0a90070
:104084001fc8bf000004e000020032009ec0a80068
:104094001e0037000040eb00004f7800ae00900097
:1040a400110798001e4fe8001e407800e14f4000c1
:1040b4000c0032001e009000104078000080fb00cd
:1040c4000000ea004f00de00004078009e009000ef
:1040d4008100e800110798000004e000f1ff3a00b5
:1040e40001003700000000002e009000004188000d
:1040f4009e40780042822000014978002568ef0044
:1041040010c0b3001fe8b7009ec0a8000080fa00ea
:10411400000006000200fa009ec0a9004041800091
:104124000000e00008003200404180009000780068
:1041340000002800008060000000e000020032005f
:104144009ec0a800620037001fc8bf00e34f5000a4
:1041540001003a001f68ef001fc8bf000004e00020
:1041640002003a009ec0a800590037001fc8bf00d3
:10417400e24f500009003a008041eb000001eb00df
:1041840011c0b30020c0b3001ef8070040418800ee
:1041940030c0b3001fe8b7004c0037001fc8bf0091
:1041a400e14f500049003a004182200091407800dc
:1041b40000c4b30080cf50000300360000c4b30035
:1041c400004f7800030037004182200091407800be
:1041d400014f780024c8bf001e40500024e8b700f7
:1041e40040842000104188009e40780011479800c8
:1041f40025c8bf000004e0001f003a000d0037008e
:10420400104180000141800091407800014878000d
:10421400104180000000e800104188000041800047
:104224000000e800004188001e4090000040e900c2
:10423400104798001e4090000004e000f0ff3a0090
:104244001000370010418000014180009140780047
:1042540001487800104180000000e8001041880007
:10426400004180000000e800004188001e409000ea
:104274000040e900104798001e4090000004e00050
:10428400f0ff3a0024c8bf000004e00009003a002f
:1042940000c4b3009e40780080cf500003003a0071
:1042a40020c0b3001fe8b7000200370030c0b300dd
:1042b4001fe8b7009e4178004284200011c0b3007b
:1042c40020c0b300cff70700404188009ec0a8007b
:1042d4000080fa00000006000000fa00a6000700b3
:1042e4000cc8bf000004e000010032000dc8bf008c
:1042f4000040fe0051208000000220000080600089
:104304000000e00002003a0010c0b30041000700c2
:10431400d200070010c0b3000080fa0000000600bd
:104324000000fa000cc8bf000004e00036003200b0
:104334000dc8bf000004e0003300320040208000bc
:10434400620060000000e000010032000824a900bf
:104354007500070000042000002088000000000011
:104364000120800000042000008060000000e000c4
:10437400fbff320000042000002088000000000041
:104384000120800000042000008060000000e000a4
:10439400fbff320000042000002088000000000021
:1043a4000120800000042000008060000000e00084
:1043b400fbff32001444a800000420000020880001
:1043c4000000000001208000000420000080600044
:1043d4000000e000fbff3200000420000020880001
:1043e4000000000001208000000420000080600024
:1043f4000000e000fbff32001444a900570007004e
:1044040010c0b300010037000040eb000080fa0048
:10441400000006000400fa002047980040208000b5
:10442400610060000000e0000b00320040208000ca
:10443400620060000000e00007003a001cc8bf00f2
:10444400e34f500004003600202080004300de00cb
:1044540061406000320037002e4090000004e0000c
:104464001d0032000824a9000804a8002e0007003b
:104474000040eb00004f78000900370000042000e2
:1044840000208800000000000120800000042000bb
:10449400008060000000e000fbff32001e4fe800d7
:1044a4001e407800e44f5000f4ff36000040eb005b
:1044b4001047980020208000680060000000e000a1
:1044c4000200320010c0b300104798002300070018
:1044d4001e40900012003700402080006100600000
:1044e4000000e00002003a0000c0eb000c003700be
:1044f40040208000620060000000e00002003a00fa
:10450400e0cfb300060037001cc8bf00e34f5000e3
:1045140002003e00d0cfb30001003700c0cfb3008b
:104524000080fa00000006000000fa003868ef007e
:104534001000fc00f10480000004200000806000f2
:104544000000e0000200320010c0b30038e8b700f9
:104554009ec0a9000080fa00000006000000fa00d6
:1045640038c8bf000004e000010032009ec0a8006b
:104574000080fa00000006000400fa001e00fc009f
:1045840011028000000e200000806000804188003d
:1045940011028000000e200001007000100288004b
:1045a40040092000100798000000eb00000f78007d
:1045b4000e0037001e009000900078001e00780066
:1045c40000014000c09e2000000041000108780066
:1045d4001e0090008000eb00010878001e0090008f
:1045e4000080e800100798001e0fe8001e00780005
:1045f400e70f5000efff36006020800090418800f4
:104604000c24ef0010208000a04188000224ef0059
:10461400700680004800de00674060000080fb00f8
:10462400b041880000012000002088000002200022
:10463400502088008ec0a9000284a8007106800062
:10464400f08f2f000080600000a0a000700688009a
:104654009ec0a8000080fa00000006000400fa00d2
:1046640040092000100798000000eb00000f7800bc
:104674000b0037001e00780080004000c09e200020
:1046840000804000900078001e009000010878002f
:104694001e0090000080e800100798001e0fe8003c
:1046a4001e007800e70f5000f2ff360090418000b2
:1046b40060208800a041800010208800b041800064
:1046c40000407800674060000080fb0067006000e5
:1046d4004800dd0072068000f18f2f008100610028
:1046e400010070007006880011028000f0f12f00b4
:1046f400808060008041800001007000804188005b
:1047040080418000100288000080fa00000006004a
:104714000000fa006000210070138800b008210036
:1047240080138800002820009013880000142000c3
:10473400a013880070138000004078006740600078
:104744000080fb00004288000080fa0000000600a0
:104754000000fa000080fa00000006000000fa00e1
:1047640020048000640060000000e00002003200c9
:10477400f7ff07008440a9000080fa00000006004b
:104784000000fa00004280000040780067406000aa
:104794000080fb00670060007213800081ff2f001f
:1047a4008100610001007000701388000080fa002d
:1047b400000006000000fa007113800080ff2f0043
:1047c40000806000701388000080fa00000006007a
:1047d4000200fa00000f78009e007800a113880000
:1047e4000080fa00000006000400fa00000f7800c0
:1047f400110798009e007800a11388009e00900085
:10480400911388000080fa00000006000400fa00fa
:10481400000f7800110798009e007800a11388000b
:104824009e009000911388000080fa0000000600aa
:104834000400fa00000f7800110798009e00780029
:10484400a11388009e009000911388000080fa0054
:10485400000006000200fa00000f78009e007800b5
:10486400911388000080fa00000006000200fa009c
:10487400000f78009e007800a11388000080fa00e1
:10488400000006000000fa00200480004200de0060
:10489400614060000080fb0000f0a7000000ea0017
:1048a4000000ea004f00de00004078000080fa00bb
:1048b400000006000400fa00100798001e00900093
:1048c400e10f50000f003200e10f500003003900e7
:1048d400e20f5000150032001e00370070138000f4
:1048e4004400de00614060000080fb0000f0a7008f
:1048f4000000ea000000ea004f00de00004f7800ec
:1049040014003700701380004500de006140600031
:104914000080fb0000f0a7000000ea000000ea00ad
:104924004f00de00004f78000a003700701380004b
:104934004600de00614060000080fb0000f0a7003c
:104944000000ea000000ea004f00de00004f78009b
:10495400000000001e4078000080fa0000000600fd
:104964000200fa00000f78001e007800e10f5000ea
:1049740007003200e10f500003003900e20f50003d
:1049840005003200060037006e82a90004003700db
:104994006ea2a900020037006ec2a9000000000048
:1049a4000080fa00000006000000fa0070c2a800af
:1049b4000080fa00000006000000fa008013800066
:1049c4004600de00614060000080fb0000f0a700ac
:1049d4000000ea000000ea004f00de00004078001a
:1049e4000080fa00000006000000fa0070c2a9006e
:1049f4000080fa00000006000000fa0040002800d1
:104a0400001188002222ef002422ef002822ef0068
:104a14002a22ef002c22ef002e22ef003022ef009a
:104a24003422ef003822ef003a22ef009e21ef00fb
:104a3400101180004200de007f4060003ee8b700b5
:104a44000080fa00000006000000fa002022a800fe
:104a54000080fa00000006000000fa002022a900ed
:104a64000080fa00000006000600fa002007980003
:104a740000202000100798000000eb00000f7800d1
:104a84000b0037001e00780000004000ae009000cc
:104a9400008040009e00900091007800010878009a
:104aa4001e0090000080e800100798001e0fe80028
:104ab4003ec8bf000080fb009e0f5000f1ff3d0088
:104ac4001e0078000080fa00000006000000fa00d2
:104ad400001080000080fa00000006000000fa00c8
:104ae4000011800000407800614060000080fb00fd
:104af40000f0a7000000ea000000ea004f00de001a
:104b0400004078000080fa00000006000200fa006d
:104b1400000f78009e007800411188000080fa00a0
:104b2400000006000000fa000080fa000000060001
:104b34000000fa00210480000000220000806000d0
:104b44000000e00002003200f6ff070085a0a90083
:104b54000080fa00000006000000fa004c22ef007a
:104b640000282000701288000000280080128800ad
:104b7400c09f20008040eb00014878000080fa00cc
:104b8400000006000000fa002004800068006000b5
:104b94000000e00009003200d09f2000104078009f
:104ba4008040e800d09f200001487800c09f20008a
:104bb40011c0b300014878008460a9000080fa00a5
:104bc400000006000200fa00000f78009e00780042
:104bd40071128800c09f20008040eb0001487800db
:104be4000080fa00000006000000fa007012800045
:104bf4000080fa00000006000200fa00000f7800ae
:104c04009e00780061128800c09f20008040eb0065
:104c1400014878000080fa00000006000000fa0055
:104c2400601280000080fa00000006000000fa0014
:104c3400c09f20008040eb000148780051e2a800aa
:104c44000080fa00000006000000fa0051e2a9000a
:104c54000080fa00000006000200fa00c09f200055
:104c6400104f78001e4078000004e000030032007a
:104c7400c09f20008040eb00014878001e4078006f
:104c84000080fa00000006000000fa00d09f200017
:104c9400104078000080fb000080fa00000006004d
:104ca4000000fa00d09f20008040eb00014878000b
:104cb4000080fa00000006000000fa005222ef0013
:104cc40020a12700c012880000032800e0128800f9
:104cd40084e0a90094e0a800e09f20008040eb005d
:104ce400014878000080fa00000006000200fa0083
:104cf400000f78009e007800c1128800e09f200019
:104d04008040eb00014878000080fa0000000600b3
:104d14000000fa00c01280000080fa0000000600c3
:104d24000200fa00000f78009e00780091128800bb
:104d3400e09f20008040eb00014878000080fa00ea
:104d4400000006000000fa00901280000080fa00c3
:104d5400000006000000fa000080fa0000000600cf
:104d64000000fa00e09f20008040eb00014878003a
:104d740094e0a8005de2a8000080fa0000000600ac
:104d84000000fa005de2a90094e0a9000080fa00a6
:104d9400000006000200fa00e09f2000104f780097
:104da4001e4078000004e00003003200e09f200071
:104db4008040eb00014878001e4078000080fa0033
:104dc400000006000000fa00f09f20001040780068
:104dd4000080fb000080fa00000006000000fa00da
:104de400f09f20008040eb00014878000080fa002a
:044df40000000600b5
:020000040000fa
:104df800de08000080000000800000003a08000083
:104e080004000000800000003e08000002000000ce
:104e1800800000005e0900003200000080000000f1
:104e2800000800001e00000080000000000a0000ca
:104e38003000000080000000fc09000002000000b3
:104e48008000000040080000020000008000000010
:104e5800440800009a000000800000001e080000be
:104e68001200000080000000fe090000020000009f
:104e780080000000b209000020000000800000004f
:104e8800420800000200000082000000ffff00004e
:104e9800ec0900001000000080000000300800004d
:104ea8000a00000080000000d20900001a0000007b
:104eb80082000000686a6c00747a4c0000000100ef
:104ec800000200000400080000100000000020009c
:104ed8002b2d230030000000900900002200000064
:104ee8008200000030313200333435003637380064
:104ef8003941420043444500460030003132330016
:104f080034353600373839006162630064656600fd
:084f1800000000000000000091
:020000040000fa
:104f20000000fa00cdfe07000080fa000000060035
:104f30000000fa00de000700c8fe07003cff070083
:104f400000408000ff0f500001003e00320037009b
:104f500040208000620060000000e000010032009c
:104f60002d0037001fc8bf000004e00028003a00f1
:104f7000a2fe0700e0002000e5fe0700b3fe0700e8
:104f800000202e0041002000ae000700b3fe070005
:104f900001003700e7fe0700d1fe07000004a20071
:104fa0000004e000fbff3a00c9fe0700e041880072
:104fb000e2418000d1418000e0912000821f780012
:104fc000811f780081e32800811f7800e6ed07004b
:104fd000e6875700e0912000fefb0700d0418000eb
:104fe0002003b000d0418800d1418000002820007b
:104ff000808f5000010036003a28ef00d041800039
:105000001bfe070000402d00010320008d0007005b
:1050100041fc0700caff3700c9ff37000000fa0053
:105020008421ef008e21ef009821ef00707920009d
:10503000000c8800f0ff2c00500c8800e01f2000be
:10504000a00c88005620ef005820ef005a20ef00f7
:105050006e20ef007020ef007220ef008621ef003d
:105060009021ef009a21ef0030002000400c8800d2
:10507000c0242e00900c880070002000e00c8800f6
:1050800001088000f00b2000008160006004200017
:1050900071052000031020008049780081497800c4
:1050a00082497800311f800000fc2f0000806000e2
:1050b000d000b300301f8800711f8000f00f2c005b
:1050c0008080600000d0200001007000701f880008
:1050d00000088000000178000260a0006004200049
:1050e0007105200003102000804978008149780074
:1050f000824978000080fa00000006000600fa00ed
:10510000000f780011079800220798001e00780011
:1051100021072000810f50001800320021072000d5
:10512000810f50000a003c00e20f500015003200d1
:10513000e20f500003003c00e10f50000b00320072
:1051400015003700e30f50000a003200120037004c
:1051500041072000810f50000c0032004107200061
:10516000810f50000b0035000b0037001afb0700c1
:105170000900370093fa070007003700000000001d
:1051800005003700000000000300370000000000a9
:10519000010037000000000010c0b3000080fa00da
:1051a000000006000000fa0000102300100888002c
:1051b0000621ef006821ef006a21ef007021ef0067
:1051c0007221ef007421ef007621ef007a21ef00c9
